{
  "_format": "hh-sol-artifact-1",
  "contractName": "CrowdFunding",
  "sourceName": "contracts/CrowdFunding.sol",
  "abi": [
    {
      "anonymous": false,
      "inputs": [
        {
          "indexed": false,
          "internalType": "address",
          "name": "contractAddress",
          "type": "address"
        },
        {
          "indexed": false,
          "internalType": "address",
          "name": "projectStarter",
          "type": "address"
        },
        {
          "indexed": false,
          "internalType": "string",
          "name": "creatorName",
          "type": "string"
        },
        {
          "indexed": false,
          "internalType": "string",
          "name": "projectTitle",
          "type": "string"
        },
        {
          "indexed": false,
          "internalType": "string",
          "name": "projectDesc",
          "type": "string"
        },
        {
          "indexed": false,
          "internalType": "uint256",
          "name": "deadline",
          "type": "uint256"
        },
        {
          "indexed": false,
          "internalType": "uint256",
          "name": "_price",
          "type": "uint256"
        },
        {
          "indexed": false,
          "internalType": "uint256",
          "name": "_limit",
          "type": "uint256"
        },
        {
          "indexed": false,
          "internalType": "string",
          "name": "_name",
          "type": "string"
        },
        {
          "indexed": false,
          "internalType": "string",
          "name": "_symbol",
          "type": "string"
        },
        {
          "indexed": false,
          "internalType": "string",
          "name": "_baseTokenURI",
          "type": "string"
        }
      ],
      "name": "ProjectStarted",
      "type": "event"
    },
    {
      "inputs": [],
      "name": "getCurrentTime",
      "outputs": [
        {
          "internalType": "uint256",
          "name": "",
          "type": "uint256"
        }
      ],
      "stateMutability": "view",
      "type": "function"
    },
    {
      "inputs": [],
      "name": "returnAllProjects",
      "outputs": [
        {
          "internalType": "contract Project[]",
          "name": "",
          "type": "address[]"
        }
      ],
      "stateMutability": "view",
      "type": "function"
    },
    {
      "inputs": [
        {
          "internalType": "string",
          "name": "creatorName",
          "type": "string"
        },
        {
          "internalType": "string",
          "name": "title",
          "type": "string"
        },
        {
          "internalType": "string",
          "name": "description",
          "type": "string"
        },
        {
          "internalType": "uint256",
          "name": "durationInSeconds",
          "type": "uint256"
        },
        {
          "internalType": "uint256",
          "name": "_price",
          "type": "uint256"
        },
        {
          "internalType": "uint256",
          "name": "_limit",
          "type": "uint256"
        },
        {
          "internalType": "string",
          "name": "_name",
          "type": "string"
        },
        {
          "internalType": "string",
          "name": "_symbol",
          "type": "string"
        },
        {
          "internalType": "string",
          "name": "_baseTokenURI",
          "type": "string"
        }
      ],
      "name": "startProject",
      "outputs": [],
      "stateMutability": "nonpayable",
      "type": "function"
    }
  ],
  "bytecode": "0x608060405234801561001057600080fd5b50614910806100206000396000f3fe60806040523480156200001157600080fd5b5060043610620000465760003560e01c806329cb924d146200004b5780635a8722f2146200005e57806385b6e28e1462000077575b600080fd5b6040514281526020015b60405180910390f35b620000756200006f36600462000321565b62000090565b005b62000081620001eb565b60405162000055919062000551565b60006200009e42886200024f565b905060008a338b8b858b8b604051620000b79062000284565b620000c99796959493929190620005a0565b604051809103906000f080158015620000e6573d6000803e3d6000fd5b50600080546001810182559080527f290decd9548b62a8d60345a988386fc84ba6bc95484008f6362f93160ef3e5630180546001600160a01b0319166001600160a01b03831690811790915560405163a6487c5360e01b81529192509063a6487c53906200015d908890889088906004016200060e565b600060405180830381600087803b1580156200017857600080fd5b505af11580156200018d573d6000803e3d6000fd5b505050507fe3ea8f1ebd111468c3f701ac32078bc6e0f2b18fe3236902bcee4ca0bae4735681338d8d8d878d8d8d8d8d604051620001d69b9a999897969594939291906200048f565b60405180910390a15050505050505050505050565b606060008054806020026020016040519081016040528092919081815260200182805480156200024557602002820191906000526020600020905b81546001600160a01b0316815260019091019060200180831162000226575b5050505050905090565b60006200025d828462000657565b9050828110156200027e57634e487b7160e01b600052600160045260246000fd5b92915050565b614248806200069383390190565b600082601f830112620002a3578081fd5b813567ffffffffffffffff80821115620002c157620002c16200067c565b604051601f8301601f19908116603f01168101908282118183101715620002ec57620002ec6200067c565b8160405283815286602085880101111562000305578485fd5b8360208701602083013792830160200193909352509392505050565b60008060008060008060008060006101208a8c03121562000340578485fd5b893567ffffffffffffffff8082111562000358578687fd5b620003668d838e0162000292565b9a5060208c01359150808211156200037c578687fd5b6200038a8d838e0162000292565b995060408c0135915080821115620003a0578687fd5b620003ae8d838e0162000292565b985060608c0135975060808c0135965060a08c0135955060c08c0135915080821115620003d9578485fd5b620003e78d838e0162000292565b945060e08c0135915080821115620003fd578384fd5b6200040b8d838e0162000292565b93506101008c013591508082111562000422578283fd5b50620004318c828d0162000292565b9150509295985092959850929598565b60008151808452815b8181101562000468576020818501810151868301820152016200044a565b818111156200047a5782602083870101525b50601f01601f19169290920160200192915050565b6001600160a01b038c811682528b1660208201526000610160806040840152620004bc8184018d62000441565b90508281036060840152620004d2818c62000441565b90508281036080840152620004e8818b62000441565b90508860a08401528760c08401528660e084015282810361010084015262000511818762000441565b905082810361012084015262000528818662000441565b90508281036101408401526200053f818562000441565b9e9d5050505050505050505050505050565b6020808252825182820181905260009190848201906040850190845b81811015620005945783516001600160a01b0316835292840192918401916001016200056d565b50909695505050505050565b60e081526000620005b560e083018a62000441565b6001600160a01b03891660208401528281036040840152620005d8818962000441565b90508281036060840152620005ee818862000441565b6080840196909652505060a081019290925260c090910152949350505050565b60608152600062000623606083018662000441565b828103602084015262000637818662000441565b905082810360408401526200064d818562000441565b9695505050505050565b600082198211156200067757634e487b7160e01b81526011600452602481fd5b500190565b634e487b7160e01b600052604160045260246000fdfe6080604052620151806101f855610202805460ff191690553480156200002457600080fd5b50604051620042483803806200424883398101604081905262000047916200021b565b6101f980546001600160a01b0319166001600160a01b038816179055865162000079906101fa9060208a0190620000c2565b50845162000090906101fb906020880190620000c2565b508351620000a7906101fc906020870190620000c2565b506101fd929092556102045561020555506200033992505050565b828054620000d090620002e6565b90600052602060002090601f016020900481019282620000f457600085556200013f565b82601f106200010f57805160ff19168380011785556200013f565b828001600101855582156200013f579182015b828111156200013f57825182559160200191906001019062000122565b506200014d92915062000151565b5090565b5b808211156200014d576000815560010162000152565b600082601f83011262000179578081fd5b81516001600160401b038082111562000196576200019662000323565b604051601f8301601f19908116603f01168101908282118183101715620001c157620001c162000323565b81604052838152602092508683858801011115620001dd578485fd5b8491505b83821015620002005785820183015181830184015290820190620001e1565b838211156200021157848385830101525b9695505050505050565b600080600080600080600060e0888a03121562000236578283fd5b87516001600160401b03808211156200024d578485fd5b6200025b8b838c0162000168565b60208b015190995091506001600160a01b03821682146200027a578485fd5b60408a0151919750808211156200028f578485fd5b6200029d8b838c0162000168565b965060608a0151915080821115620002b3578485fd5b50620002c28a828b0162000168565b9450506080880151925060a0880151915060c0880151905092959891949750929550565b600181811c90821680620002fb57607f821691505b602082108114156200031d57634e487b7160e01b600052602260045260246000fd5b50919050565b634e487b7160e01b600052604160045260246000fd5b613eff80620003496000396000f3fe6080604052600436106103b85760003560e01c80638154e1f0116101f2578063b88d4fde1161010d578063d547741f116100a0578063e8a3d4851161006f578063e8a3d48514610aac578063e985e9c514610ac1578063f2f6596014610b0a578063f2fde38b14610b2a57600080fd5b8063d547741f14610a27578063d759f9cf14610a47578063dff8269114610a5c578063e63ab1e914610a8a57600080fd5b8063c87b56dd116100dc578063c87b56dd1461099c578063ca15c873146109bc578063ce845d1d146109dc578063d5391393146109f357600080fd5b8063b88d4fde14610920578063bbf4925a14610940578063bc3da53514610958578063c1cbbca71461098957600080fd5b8063938e3d7b11610185578063a217fddf11610154578063a217fddf146108b0578063a22cb465146108c5578063a3d7e029146108e5578063a6487c531461090057600080fd5b8063938e3d7b1461084f57806395d89b411461086f5780639e31844714610884578063a06db7dc1461089957600080fd5b80638a99b472116101c15780638a99b472146107d05780638da5cb5b146107f05780639010d07c1461080f57806391d148541461082f57600080fd5b80638154e1f01461077857806383f7cd0d1461078f5780638456cb59146107a65780638988e693146107bb57600080fd5b80633ac05632116102e2578063590e1ae3116102755780636e4b73c1116102445780636e4b73c11461071957806370a082311461072e578063715018a61461074e5780637284e4161461076357600080fd5b8063590e1ae3146106c45780635c975abb146106d95780636352211e146106f1578063672756ad1461071157600080fd5b806342e94c90116102b157806342e94c90146106415780634a79d50c1461066f5780634f6ccce71461068457806355f804b3146106a457600080fd5b80633ac05632146105d75780633ccfd60b146105f75780633f4ba83a1461060c57806342842e0e1461062157600080fd5b806318160ddd1161035a5780632a7065ea116103295780632a7065ea146105605780632f2ff15d146105775780632f745c591461059757806336568abe146105b757600080fd5b806318160ddd146104e55780631f6f90bd146104fa57806323b872dd1461050f578063248a9ca31461052f57600080fd5b806306fdde031161039657806306fdde031461045c578063081812fc1461047e578063095ea7b31461049e5780630d39fc81146104c057600080fd5b806301ffc9a7146103bd57806302d05d3f146103f257806303ee582a1461042b575b600080fd5b3480156103c957600080fd5b506103dd6103d836600461399f565b610b4a565b60405190151581526020015b60405180910390f35b3480156103fe57600080fd5b506101f954610413906001600160a01b031681565b6040516001600160a01b0390911681526020016103e9565b34801561043757600080fd5b506103dd6104463660046137e1565b6102086020526000908152604090205460ff1681565b34801561046857600080fd5b50610471610b5b565b6040516103e99190613b9b565b34801561048a57600080fd5b50610413610499366004613944565b610bed565b3480156104aa57600080fd5b506104be6104b936600461391b565b610c87565b005b3480156104cc57600080fd5b506104d76102045481565b6040519081526020016103e9565b3480156104f157600080fd5b5060fd546104d7565b34801561050657600080fd5b50610471610d9d565b34801561051b57600080fd5b506104be61052a36600461382d565b610e2c565b34801561053b57600080fd5b506104d761054a366004613944565b600090815261012d602052604090206001015490565b34801561056c57600080fd5b506104d76102055481565b34801561058357600080fd5b506104be61059236600461395c565b610e5d565b3480156105a357600080fd5b506104d76105b236600461391b565b610e80565b3480156105c357600080fd5b506104be6105d236600461395c565b610f16565b3480156105e357600080fd5b506104be6105f2366004613a0a565b610f39565b34801561060357600080fd5b506103dd611034565b34801561061857600080fd5b506104be611121565b34801561062d57600080fd5b506104be61063c36600461382d565b611189565b34801561064d57600080fd5b506104d761065c3660046137e1565b6102066020526000908152604090205481565b34801561067b57600080fd5b506104716111a4565b34801561069057600080fd5b506104d761069f366004613944565b6111b2565b3480156106b057600080fd5b506104be6106bf3660046139d7565b611253565b3480156106d057600080fd5b506103dd6112bb565b3480156106e557600080fd5b5060975460ff166103dd565b3480156106fd57600080fd5b5061041361070c366004613944565b6114e0565b6103dd611557565b34801561072557600080fd5b506104d761167e565b34801561073a57600080fd5b506104d76107493660046137e1565b61168f565b34801561075a57600080fd5b506104be611716565b34801561076f57600080fd5b5061047161174b565b34801561078457600080fd5b506104d76101fd5481565b34801561079b57600080fd5b506104d76102035481565b3480156107b257600080fd5b506104be611759565b3480156107c757600080fd5b506104716117bf565b3480156107dc57600080fd5b506103dd6107eb366004613a0a565b6117cd565b3480156107fc57600080fd5b50610191546001600160a01b0316610413565b34801561081b57600080fd5b5061041361082a36600461397e565b6118be565b34801561083b57600080fd5b506103dd61084a36600461395c565b6118de565b34801561085b57600080fd5b506104be61086a3660046139d7565b61190a565b34801561087b57600080fd5b5061047161196e565b34801561089057600080fd5b5061047161197d565b3480156108a557600080fd5b506104d76101f85481565b3480156108bc57600080fd5b506104d7600081565b3480156108d157600080fd5b506104be6108e03660046138e1565b61198b565b3480156108f157600080fd5b50610202546103dd9060ff1681565b34801561090c57600080fd5b506104be61091b366004613a0a565b611a50565b34801561092c57600080fd5b506104be61093b366004613868565b611aba565b34801561094c57600080fd5b506101f7546104d79081565b34801561096457600080fd5b506103dd6109733660046137e1565b6102096020526000908152604090205460ff1681565b6103dd610997366004613944565b611aec565b3480156109a857600080fd5b506104716109b7366004613944565b611cfb565b3480156109c857600080fd5b506104d76109d7366004613944565b611dd5565b3480156109e857600080fd5b506104d76102015481565b3480156109ff57600080fd5b506104d77f9f2df0fed2c77648de5860a4cc508cd0818c85b8b8a1ab4ceeef8d981c8956a681565b348015610a3357600080fd5b506104be610a4236600461395c565b611ded565b348015610a5357600080fd5b50610471611df7565b348015610a6857600080fd5b506104d7610a773660046137e1565b6102076020526000908152604090205481565b348015610a9657600080fd5b506104d7600080516020613eaa83398151915281565b348015610ab857600080fd5b50610471611e05565b348015610acd57600080fd5b506103dd610adc3660046137fb565b6001600160a01b039182166000908152606a6020908152604080832093909416825291909152205460ff1690565b348015610b1657600080fd5b506104be610b25366004613944565b611e15565b348015610b3657600080fd5b506104be610b453660046137e1565b611e46565b6000610b5582611ee2565b92915050565b606060658054610b6a90613de7565b80601f0160208091040260200160405190810160405280929190818152602001828054610b9690613de7565b8015610be35780601f10610bb857610100808354040283529160200191610be3565b820191906000526020600020905b815481529060010190602001808311610bc657829003601f168201915b5050505050905090565b6000818152606760205260408120546001600160a01b0316610c6b5760405162461bcd60e51b815260206004820152602c60248201527f4552433732313a20617070726f76656420717565727920666f72206e6f6e657860448201526b34b9ba32b73a103a37b5b2b760a11b60648201526084015b60405180910390fd5b506000908152606960205260409020546001600160a01b031690565b6000610c92826114e0565b9050806001600160a01b0316836001600160a01b03161415610d005760405162461bcd60e51b815260206004820152602160248201527f4552433732313a20617070726f76616c20746f2063757272656e74206f776e656044820152603960f91b6064820152608401610c62565b336001600160a01b0382161480610d1c5750610d1c8133610adc565b610d8e5760405162461bcd60e51b815260206004820152603860248201527f4552433732313a20617070726f76652063616c6c6572206973206e6f74206f7760448201527f6e6572206e6f7220617070726f76656420666f7220616c6c00000000000000006064820152608401610c62565b610d988383611f07565b505050565b6101fa8054610dab90613de7565b80601f0160208091040260200160405190810160405280929190818152602001828054610dd790613de7565b8015610e245780601f10610df957610100808354040283529160200191610e24565b820191906000526020600020905b815481529060010190602001808311610e0757829003601f168201915b505050505081565b610e363382611f75565b610e525760405162461bcd60e51b8152600401610c6290613cf1565b610d9883838361206c565b610e678282612217565b600082815261015f60205260409020610d98908261223e565b6000610e8b8361168f565b8210610eed5760405162461bcd60e51b815260206004820152602b60248201527f455243373231456e756d657261626c653a206f776e657220696e646578206f7560448201526a74206f6620626f756e647360a81b6064820152608401610c62565b506001600160a01b0391909116600090815260fb60209081526040808320938352929052205490565b610f208282612253565b600082815261015f60205260409020610d9890826122cd565b600054610100900460ff1680610f52575060005460ff16155b610f6e5760405162461bcd60e51b8152600401610c6290613c00565b600054610100900460ff16158015610f90576000805461ffff19166101011790555b8151610fa4906101c3906020850190613697565b50610faf84846122e2565b610fb7612369565b610fbf6123f4565b610fc761245b565b610fcf6124ba565b610fda600033612521565b6110047f9f2df0fed2c77648de5860a4cc508cd0818c85b8b8a1ab4ceeef8d981c8956a633612521565b61101c600080516020613eaa83398151915233612521565b801561102e576000805461ff00191690555b50505050565b6101f9546000906001600160a01b031633146110a65760405162461bcd60e51b815260206004820152602b60248201527f596f75206d757374206265207468652070726f6a6563742063726561746f722060448201526a746f20776974686472617760a81b6064820152608401610c62565b6102025460ff1680156110c957506101f8546101fd546110c59161252b565b4210155b6110e55760405162461bcd60e51b8152600401610c6290613cba565b61020154604051339180156108fc02916000818181858888f19350505050158015611114573d6000803e3d6000fd5b5050600061020155600190565b611139600080516020613eaa833981519152336118de565b61117f5760405162461bcd60e51b815260206004820152601760248201527622a9219b9918a130b9b29d1037b7363c96b830bab9b2b960491b6044820152606401610c62565b611187612557565b565b610d9883838360405180602001604052806000815250611aba565b6101fb8054610dab90613de7565b60006111bd60fd5490565b82106112205760405162461bcd60e51b815260206004820152602c60248201527f455243373231456e756d657261626c653a20676c6f62616c20696e646578206f60448201526b7574206f6620626f756e647360a01b6064820152608401610c62565b60fd828154811061124157634e487b7160e01b600052603260045260246000fd5b90600052602060002001549050919050565b61125e6000336118de565b6112a35760405162461bcd60e51b815260206004820152601660248201527522a9219b9918a130b9b29d1037b7363c96b0b236b4b760511b6044820152606401610c62565b80516112b7906101c3906020840190613697565b5050565b600060026101c55414156113115760405162461bcd60e51b815260206004820152601f60248201527f5265656e7472616e637947756172643a207265656e7472616e742063616c6c006044820152606401610c62565b60026101c5556101fd5442101561133a5760405162461bcd60e51b8152600401610c6290613cba565b336000908152610209602052604090205460ff161561136b5760405162461bcd60e51b8152600401610c6290613c4e565b336000908152610208602052604090205460ff16156113cc5760405162461bcd60e51b815260206004820152601c60248201527f596f75206861766520616c726561647920636c61696d6564204e4654000000006044820152606401610c62565b33600090815261020660205260409020546102025460ff16156114085733600090815261020660205260409020546114059060026125ea565b90505b33600090815261020960205260409020805460ff191660011790556102015461143190826125f6565b61020155336000908152610206602052604090205461145090826125f6565b336000818152610206602090815260408083209490945561020790528281208190559151909183156108fc02918491818181858888f1935050505015801561149c573d6000803e3d6000fd5b5060405181815233907fd7dee2702d63ad89917b6a4da9981c90c4d24f8c2bdfd64c604ecae57d8d06519060200160405180910390a2600191505060016101c55590565b6000818152606760205260408120546001600160a01b031680610b555760405162461bcd60e51b815260206004820152602960248201527f4552433732313a206f776e657220717565727920666f72206e6f6e657869737460448201526832b73a103a37b5b2b760b91b6064820152608401610c62565b60006101fd5442101561157c5760405162461bcd60e51b8152600401610c6290613cba565b336000908152610209602052604090205460ff16156115ad5760405162461bcd60e51b8152600401610c6290613c4e565b336000908152610208602052604090205460ff161561160e5760405162461bcd60e51b815260206004820152601c60248201527f596f75206861766520616c726561647920636c61696d6564204e4654000000006044820152606401610c62565b33600090815261020860205260408120805460ff191660011790555b336000908152610207602052604090205481101561167657611655336116506101f75490565b612620565b6116646101f780546001019055565b8061166e81613e22565b91505061162a565b506001905090565b600061168a6101f75490565b905090565b60006001600160a01b0382166116fa5760405162461bcd60e51b815260206004820152602a60248201527f4552433732313a2062616c616e636520717565727920666f7220746865207a65604482015269726f206164647265737360b01b6064820152608401610c62565b506001600160a01b031660009081526068602052604090205490565b610191546001600160a01b031633146117415760405162461bcd60e51b8152600401610c6290613c85565b611187600061263a565b6101fc8054610dab90613de7565b611771600080516020613eaa833981519152336118de565b6117b75760405162461bcd60e51b815260206004820152601760248201527622a9219b9918a130b9b29d1037b7363c96b830bab9b2b960491b6044820152606401610c62565b61118761268d565b6102008054610dab90613de7565b6101f9546000906001600160a01b0316331461181a5760405162461bcd60e51b815260206004820152600c60248201526b27b7363c9031b932b0ba37b960a11b6044820152606401610c62565b6102025460ff1615801561183057506101fd5442105b6118675760405162461bcd60e51b8152602060048201526008602482015267546f6f206c61746560c01b6044820152606401610c62565b610202805460ff191660011790558351611889906101fe906020870190613697565b50825161189e906101ff906020860190613697565b5081516118b390610200906020850190613697565b506001949350505050565b600082815261015f602052604081206118d79083612708565b9392505050565b600091825261012d602090815260408084206001600160a01b0393909316845291905290205460ff1690565b6119156000336118de565b61195a5760405162461bcd60e51b815260206004820152601660248201527522a9219b9918a130b9b29d1037b7363c96b0b236b4b760511b6044820152606401610c62565b80516112b7906101c4906020840190613697565b606060668054610b6a90613de7565b6101ff8054610dab90613de7565b6001600160a01b0382163314156119e45760405162461bcd60e51b815260206004820152601960248201527f4552433732313a20617070726f766520746f2063616c6c6572000000000000006044820152606401610c62565b336000818152606a602090815260408083206001600160a01b03871680855290835292819020805460ff191686151590811790915590519081529192917f17307eab39ab6107e8899845ad3d59bd9653f200f220920489ca2b5937696c31910160405180910390a35050565b600054610100900460ff1680611a69575060005460ff16155b611a855760405162461bcd60e51b8152600401610c6290613c00565b600054610100900460ff16158015611aa7576000805461ffff19166101011790555b611ab2848484612714565b61101c612776565b611ac43383611f75565b611ae05760405162461bcd60e51b8152600401610c6290613cf1565b61102e848484846127d5565b6101f9546000906001600160a01b0316331415611b5c5760405162461bcd60e51b815260206004820152602860248201527f596f752063616e277420636f6e7472696275746520746f20796f7572206f776e604482015267081c1c9bda9958dd60c21b6064820152608401610c62565b6102055461020354611b6e908461252b565b1115611ba75760405162461bcd60e51b815260206004820152600860248201526714dbdb19081bdd5d60c21b6044820152606401610c62565b336000908152610209602052604090205460ff1615611bd85760405162461bcd60e51b8152600401610c6290613c4e565b60006102045483611be99190613d6e565b9050348114611c335760405162461bcd60e51b8152602060048201526016602482015275151bdad95b88185b5bdd5b9d081a5b98dbdc9c9958dd60521b6044820152606401610c62565b61020154611c41903461252b565b6102015561020354611c53908461252b565b610203553360009081526102066020526040902054611c72903461252b565b336000908152610206602090815260408083209390935561020790522054611c9a908461252b565b3360008181526102076020526040908190209290925590517ffa35a310d7113dddce1c275da946348e9aaebf9050b00b372033c4d84b0bd6eb90611cea9086903490918252602082015260400190565b60405180910390a250600192915050565b6000818152606760205260409020546060906001600160a01b0316611d7a5760405162461bcd60e51b815260206004820152602f60248201527f4552433732314d657461646174613a2055524920717565727920666f72206e6f60448201526e3732bc34b9ba32b73a103a37b5b2b760891b6064820152608401610c62565b6000611d84612808565b90506000815111611da457604051806020016040528060008152506118d7565b80611dae84612818565b604051602001611dbf929190613aba565b6040516020818303038152906040529392505050565b600081815261015f60205260408120610b5590612932565b610f20828261293c565b6101fe8054610dab90613de7565b60606101c48054610b6a90613de7565b610191546001600160a01b03163314611e405760405162461bcd60e51b8152600401610c6290613c85565b6101f855565b610191546001600160a01b03163314611e715760405162461bcd60e51b8152600401610c6290613c85565b6001600160a01b038116611ed65760405162461bcd60e51b815260206004820152602660248201527f4f776e61626c653a206e6577206f776e657220697320746865207a65726f206160448201526564647265737360d01b6064820152608401610c62565b611edf8161263a565b50565b60006001600160e01b03198216635a05180f60e01b1480610b555750610b5582612963565b600081815260696020526040902080546001600160a01b0319166001600160a01b0384169081179091558190611f3c826114e0565b6001600160a01b03167f8c5be1e5ebec7d5bd14f71427d1e84f3dd0314c0f7b2291e5b200ac8c7c3b92560405160405180910390a45050565b6000818152606760205260408120546001600160a01b0316611fee5760405162461bcd60e51b815260206004820152602c60248201527f4552433732313a206f70657261746f7220717565727920666f72206e6f6e657860448201526b34b9ba32b73a103a37b5b2b760a11b6064820152608401610c62565b6000611ff9836114e0565b9050806001600160a01b0316846001600160a01b031614806120345750836001600160a01b031661202984610bed565b6001600160a01b0316145b8061206457506001600160a01b038082166000908152606a602090815260408083209388168352929052205460ff165b949350505050565b826001600160a01b031661207f826114e0565b6001600160a01b0316146120e75760405162461bcd60e51b815260206004820152602960248201527f4552433732313a207472616e73666572206f6620746f6b656e2074686174206960448201526839903737ba1037bbb760b91b6064820152608401610c62565b6001600160a01b0382166121495760405162461bcd60e51b8152602060048201526024808201527f4552433732313a207472616e7366657220746f20746865207a65726f206164646044820152637265737360e01b6064820152608401610c62565b612154838383612988565b61215f600082611f07565b6001600160a01b0383166000908152606860205260408120805460019290612188908490613d8d565b90915550506001600160a01b03821660009081526068602052604081208054600192906121b6908490613d42565b909155505060008181526067602052604080822080546001600160a01b0319166001600160a01b0386811691821790925591518493918716917fddf252ad1be2c89b69c2b068fc378daa952ba7f163c4a11628f55a4df523b3ef91a4505050565b600082815261012d60205260409020600101546122348133612993565b610d9883836129f7565b60006118d7836001600160a01b038416612a7e565b6001600160a01b03811633146122c35760405162461bcd60e51b815260206004820152602f60248201527f416363657373436f6e74726f6c3a2063616e206f6e6c792072656e6f756e636560448201526e103937b632b9903337b91039b2b63360891b6064820152608401610c62565b6112b78282612acd565b60006118d7836001600160a01b038416612b35565b600054610100900460ff16806122fb575060005460ff16155b6123175760405162461bcd60e51b8152600401610c6290613c00565b600054610100900460ff16158015612339576000805461ffff19166101011790555b612341612c52565b612349612c52565b6123538383612cbc565b8015610d98576000805461ff0019169055505050565b600054610100900460ff1680612382575060005460ff16155b61239e5760405162461bcd60e51b8152600401610c6290613c00565b600054610100900460ff161580156123c0576000805461ffff19166101011790555b6123c8612c52565b6123d0612c52565b6123d8612d51565b6123e0612c52565b8015611edf576000805461ff001916905550565b600054610100900460ff168061240d575060005460ff16155b6124295760405162461bcd60e51b8152600401610c6290613c00565b600054610100900460ff1615801561244b576000805461ffff19166101011790555b612453612c52565b6123d8612c52565b600054610100900460ff1680612474575060005460ff16155b6124905760405162461bcd60e51b8152600401610c6290613c00565b600054610100900460ff161580156124b2576000805461ffff19166101011790555b61244b612c52565b600054610100900460ff16806124d3575060005460ff16155b6124ef5760405162461bcd60e51b8152600401610c6290613c00565b600054610100900460ff16158015612511576000805461ffff19166101011790555b612519612c52565b6123e0612dc6565b610e678282612e26565b60006125378284613d42565b905082811015610b5557634e487b7160e01b600052600160045260246000fd5b60975460ff166125a05760405162461bcd60e51b815260206004820152601460248201527314185d5cd8589b194e881b9bdd081c185d5cd95960621b6044820152606401610c62565b6097805460ff191690557f5db9ee0a495bf2e6ff9c91a7834c1ba4fdd244a5e8aa4e537bd38aeae4b073aa335b6040516001600160a01b03909116815260200160405180910390a1565b60006118d78284613d5a565b60008282111561261657634e487b7160e01b600052600160045260246000fd5b6118d78284613d8d565b6112b7828260405180602001604052806000815250612e30565b61019180546001600160a01b038381166001600160a01b0319831681179093556040519116919082907f8be0079c531659141344cd1fd0a4f28419497f9722a3daafe3b4186f6b6457e090600090a35050565b60975460ff16156126d35760405162461bcd60e51b815260206004820152601060248201526f14185d5cd8589b194e881c185d5cd95960821b6044820152606401610c62565b6097805460ff191660011790557f62e78cea01bee320cd4e420270b5ea74000d11b0c9f74754ebdbfc544b05a2586125cd3390565b60006118d78383612e63565b600054610100900460ff168061272d575060005460ff16155b6127495760405162461bcd60e51b8152600401610c6290613c00565b600054610100900460ff1615801561276b576000805461ffff19166101011790555b61101c848484610f39565b600054610100900460ff168061278f575060005460ff16155b6127ab5760405162461bcd60e51b8152600401610c6290613c00565b600054610100900460ff161580156127cd576000805461ffff19166101011790555b6123e0612e9b565b6127e084848461206c565b6127ec84848484612f0c565b61102e5760405162461bcd60e51b8152600401610c6290613bae565b60606101c38054610b6a90613de7565b60608161283c5750506040805180820190915260018152600360fc1b602082015290565b8160005b8115612866578061285081613e22565b915061285f9050600a83613d5a565b9150612840565b60008167ffffffffffffffff81111561288f57634e487b7160e01b600052604160045260246000fd5b6040519080825280601f01601f1916602001820160405280156128b9576020820181803683370190505b5090505b8415612064576128ce600183613d8d565b91506128db600a86613e3d565b6128e6906030613d42565b60f81b81838151811061290957634e487b7160e01b600052603260045260246000fd5b60200101906001600160f81b031916908160001a90535061292b600a86613d5a565b94506128bd565b6000610b55825490565b600082815261012d60205260409020600101546129598133612993565b610d988383612acd565b60006001600160e01b03198216637965db0b60e01b1480610b555750610b558261300e565b610d98838383613033565b61299d82826118de565b6112b7576129b5816001600160a01b031660146130f6565b6129c08360206130f6565b6040516020016129d1929190613ae9565b60408051601f198184030181529082905262461bcd60e51b8252610c6291600401613b9b565b612a0182826118de565b6112b757600082815261012d602090815260408083206001600160a01b03851684529091529020805460ff19166001179055612a3a3390565b6001600160a01b0316816001600160a01b0316837f2f8788117e7eff1d82e926ec794901d17c78024a50270940304540a733656f0d60405160405180910390a45050565b6000818152600183016020526040812054612ac557508154600181810184556000848152602080822090930184905584548482528286019093526040902091909155610b55565b506000610b55565b612ad782826118de565b156112b757600082815261012d602090815260408083206001600160a01b0385168085529252808320805460ff1916905551339285917ff6391f5c32d9c69d2a47ea670b442974b53935d1edc7fd64eb21e047a839171b9190a45050565b60008181526001830160205260408120548015612c48576000612b59600183613d8d565b8554909150600090612b6d90600190613d8d565b9050818114612bee576000866000018281548110612b9b57634e487b7160e01b600052603260045260246000fd5b9060005260206000200154905080876000018481548110612bcc57634e487b7160e01b600052603260045260246000fd5b6000918252602080832090910192909255918252600188019052604090208390555b8554869080612c0d57634e487b7160e01b600052603160045260246000fd5b600190038181906000526020600020016000905590558560010160008681526020019081526020016000206000905560019350505050610b55565b6000915050610b55565b600054610100900460ff1680612c6b575060005460ff16155b612c875760405162461bcd60e51b8152600401610c6290613c00565b600054610100900460ff161580156123e0576000805461ffff19166101011790558015611edf576000805461ff001916905550565b600054610100900460ff1680612cd5575060005460ff16155b612cf15760405162461bcd60e51b8152600401610c6290613c00565b600054610100900460ff16158015612d13576000805461ffff19166101011790555b8251612d26906065906020860190613697565b508151612d3a906066906020850190613697565b508015610d98576000805461ff0019169055505050565b600054610100900460ff1680612d6a575060005460ff16155b612d865760405162461bcd60e51b8152600401610c6290613c00565b600054610100900460ff16158015612da8576000805461ffff19166101011790555b6097805460ff191690558015611edf576000805461ff001916905550565b600054610100900460ff1680612ddf575060005460ff16155b612dfb5760405162461bcd60e51b8152600401610c6290613c00565b600054610100900460ff16158015612e1d576000805461ffff19166101011790555b6123e03361263a565b6112b782826129f7565b612e3a83836132d8565b612e476000848484612f0c565b610d985760405162461bcd60e51b8152600401610c6290613bae565b6000826000018281548110612e8857634e487b7160e01b600052603260045260246000fd5b9060005260206000200154905092915050565b600054610100900460ff1680612eb4575060005460ff16155b612ed05760405162461bcd60e51b8152600401610c6290613c00565b600054610100900460ff16158015612ef2576000805461ffff19166101011790555b60016101c5558015611edf576000805461ff001916905550565b60006001600160a01b0384163b156118b357604051630a85bd0160e11b81526001600160a01b0385169063150b7a0290612f50903390899088908890600401613b5e565b602060405180830381600087803b158015612f6a57600080fd5b505af1925050508015612f9a575060408051601f3d908101601f19168201909252612f97918101906139bb565b60015b612ff4573d808015612fc8576040519150601f19603f3d011682016040523d82523d6000602084013e612fcd565b606091505b508051612fec5760405162461bcd60e51b8152600401610c6290613bae565b805181602001fd5b6001600160e01b031916630a85bd0160e11b149050612064565b60006001600160e01b0319821663780e9d6360e01b1480610b555750610b5582613426565b61303e838383613476565b6001600160a01b038316613099576130948160fd8054600083815260fe60205260408120829055600182018355919091527f9346ac6dd7de6b96975fec380d4d994c4c12e6a8897544f22915316cc6cca2800155565b6130bc565b816001600160a01b0316836001600160a01b0316146130bc576130bc83826134dd565b6001600160a01b0382166130d357610d988161357a565b826001600160a01b0316826001600160a01b031614610d9857610d988282613653565b60606000613105836002613d6e565b613110906002613d42565b67ffffffffffffffff81111561313657634e487b7160e01b600052604160045260246000fd5b6040519080825280601f01601f191660200182016040528015613160576020820181803683370190505b509050600360fc1b8160008151811061318957634e487b7160e01b600052603260045260246000fd5b60200101906001600160f81b031916908160001a905350600f60fb1b816001815181106131c657634e487b7160e01b600052603260045260246000fd5b60200101906001600160f81b031916908160001a90535060006131ea846002613d6e565b6131f5906001613d42565b90505b6001811115613289576f181899199a1a9b1b9c1cb0b131b232b360811b85600f166010811061323757634e487b7160e01b600052603260045260246000fd5b1a60f81b82828151811061325b57634e487b7160e01b600052603260045260246000fd5b60200101906001600160f81b031916908160001a90535060049490941c9361328281613dd0565b90506131f8565b5083156118d75760405162461bcd60e51b815260206004820181905260248201527f537472696e67733a20686578206c656e67746820696e73756666696369656e746044820152606401610c62565b6001600160a01b03821661332e5760405162461bcd60e51b815260206004820181905260248201527f4552433732313a206d696e7420746f20746865207a65726f20616464726573736044820152606401610c62565b6000818152606760205260409020546001600160a01b0316156133935760405162461bcd60e51b815260206004820152601c60248201527f4552433732313a20746f6b656e20616c7265616479206d696e746564000000006044820152606401610c62565b61339f60008383612988565b6001600160a01b03821660009081526068602052604081208054600192906133c8908490613d42565b909155505060008181526067602052604080822080546001600160a01b0319166001600160a01b03861690811790915590518392907fddf252ad1be2c89b69c2b068fc378daa952ba7f163c4a11628f55a4df523b3ef908290a45050565b60006001600160e01b031982166380ac58cd60e01b148061345757506001600160e01b03198216635b5e139f60e01b145b80610b5557506301ffc9a760e01b6001600160e01b0319831614610b55565b60975460ff1615610d985760405162461bcd60e51b815260206004820152602b60248201527f4552433732315061757361626c653a20746f6b656e207472616e73666572207760448201526a1a1a5b19481c185d5cd95960aa1b6064820152608401610c62565b600060016134ea8461168f565b6134f49190613d8d565b600083815260fc6020526040902054909150808214613547576001600160a01b038416600090815260fb60209081526040808320858452825280832054848452818420819055835260fc90915290208190555b50600091825260fc602090815260408084208490556001600160a01b03909416835260fb81528383209183525290812055565b60fd5460009061358c90600190613d8d565b600083815260fe602052604081205460fd80549394509092849081106135c257634e487b7160e01b600052603260045260246000fd5b906000526020600020015490508060fd83815481106135f157634e487b7160e01b600052603260045260246000fd5b600091825260208083209091019290925582815260fe909152604080822084905585825281205560fd80548061363757634e487b7160e01b600052603160045260246000fd5b6001900381819060005260206000200160009055905550505050565b600061365e8361168f565b6001600160a01b03909316600090815260fb60209081526040808320868452825280832085905593825260fc9052919091209190915550565b8280546136a390613de7565b90600052602060002090601f0160209004810192826136c5576000855561370b565b82601f106136de57805160ff191683800117855561370b565b8280016001018555821561370b579182015b8281111561370b5782518255916020019190600101906136f0565b5061371792915061371b565b5090565b5b80821115613717576000815560010161371c565b600067ffffffffffffffff8084111561374b5761374b613e7d565b604051601f8501601f19908116603f0116810190828211818310171561377357613773613e7d565b8160405280935085815286868601111561378c57600080fd5b858560208301376000602087830101525050509392505050565b80356001600160a01b03811681146137bd57600080fd5b919050565b600082601f8301126137d2578081fd5b6118d783833560208501613730565b6000602082840312156137f2578081fd5b6118d7826137a6565b6000806040838503121561380d578081fd5b613816836137a6565b9150613824602084016137a6565b90509250929050565b600080600060608486031215613841578081fd5b61384a846137a6565b9250613858602085016137a6565b9150604084013590509250925092565b6000806000806080858703121561387d578081fd5b613886856137a6565b9350613894602086016137a6565b925060408501359150606085013567ffffffffffffffff8111156138b6578182fd5b8501601f810187136138c6578182fd5b6138d587823560208401613730565b91505092959194509250565b600080604083850312156138f3578182fd5b6138fc836137a6565b915060208301358015158114613910578182fd5b809150509250929050565b6000806040838503121561392d578182fd5b613936836137a6565b946020939093013593505050565b600060208284031215613955578081fd5b5035919050565b6000806040838503121561396e578182fd5b82359150613824602084016137a6565b60008060408385031215613990578182fd5b50508035926020909101359150565b6000602082840312156139b0578081fd5b81356118d781613e93565b6000602082840312156139cc578081fd5b81516118d781613e93565b6000602082840312156139e8578081fd5b813567ffffffffffffffff8111156139fe578182fd5b612064848285016137c2565b600080600060608486031215613a1e578283fd5b833567ffffffffffffffff80821115613a35578485fd5b613a41878388016137c2565b94506020860135915080821115613a56578384fd5b613a62878388016137c2565b93506040860135915080821115613a77578283fd5b50613a84868287016137c2565b9150509250925092565b60008151808452613aa6816020860160208601613da4565b601f01601f19169290920160200192915050565b60008351613acc818460208801613da4565b835190830190613ae0818360208801613da4565b01949350505050565b7f416363657373436f6e74726f6c3a206163636f756e7420000000000000000000815260008351613b21816017850160208801613da4565b7001034b99036b4b9b9b4b733903937b6329607d1b6017918401918201528351613b52816028840160208801613da4565b01602801949350505050565b6001600160a01b0385811682528416602082015260408101839052608060608201819052600090613b9190830184613a8e565b9695505050505050565b6020815260006118d76020830184613a8e565b60208082526032908201527f4552433732313a207472616e7366657220746f206e6f6e20455243373231526560408201527131b2b4bb32b91034b6b83632b6b2b73a32b960711b606082015260800190565b6020808252602e908201527f496e697469616c697a61626c653a20636f6e747261637420697320616c72656160408201526d191e481a5b9a5d1a585b1a5e995960921b606082015260800190565b60208082526019908201527f596f75206861766520616c726561647920726566756e64656400000000000000604082015260600190565b6020808252818101527f4f776e61626c653a2063616c6c6572206973206e6f7420746865206f776e6572604082015260600190565b60208082526017908201527f50726f6a656374206973206e6f7420636f6d706c657465000000000000000000604082015260600190565b60208082526031908201527f4552433732313a207472616e736665722063616c6c6572206973206e6f74206f6040820152701ddb995c881b9bdc88185c1c1c9bdd9959607a1b606082015260800190565b60008219821115613d5557613d55613e51565b500190565b600082613d6957613d69613e67565b500490565b6000816000190483118215151615613d8857613d88613e51565b500290565b600082821015613d9f57613d9f613e51565b500390565b60005b83811015613dbf578181015183820152602001613da7565b8381111561102e5750506000910152565b600081613ddf57613ddf613e51565b506000190190565b600181811c90821680613dfb57607f821691505b60208210811415613e1c57634e487b7160e01b600052602260045260246000fd5b50919050565b6000600019821415613e3657613e36613e51565b5060010190565b600082613e4c57613e4c613e67565b500690565b634e487b7160e01b600052601160045260246000fd5b634e487b7160e01b600052601260045260246000fd5b634e487b7160e01b600052604160045260246000fd5b6001600160e01b031981168114611edf57600080fdfe65d7a28e3265b37a6474929f336521b332c1681b933f6cb9f3376673440d862aa26469706673582212204fb23cecee2372c9ec9655d3e9431bd088a9242937bbc141ed8276f3c36978e464736f6c63430008040033a2646970667358221220d541204dfac2c6226912a70834cbf1bff1de1f92b047239c1ef54fc17132c64764736f6c63430008040033",
  "linkReferences": {},
  "deployedLinkReferences": {}
}