{
  "_format": "hh-sol-artifact-1",
  "contractName": "Project",
  "sourceName": "contracts/Project.sol",
  "abi": [
    {
      "inputs": [
        {
          "internalType": "string",
          "name": "_creatorName",
          "type": "string"
        },
        {
          "internalType": "address payable",
          "name": "_creator",
          "type": "address"
        },
        {
          "internalType": "string",
          "name": "_title",
          "type": "string"
        },
        {
          "internalType": "string",
          "name": "_description",
          "type": "string"
        },
        {
          "internalType": "uint256",
          "name": "_timeToSubmitWork",
          "type": "uint256"
        },
        {
          "internalType": "uint256",
          "name": "_price",
          "type": "uint256"
        },
        {
          "internalType": "uint256",
          "name": "_limit",
          "type": "uint256"
        }
      ],
      "stateMutability": "nonpayable",
      "type": "constructor"
    },
    {
      "anonymous": false,
      "inputs": [
        {
          "indexed": true,
          "internalType": "address",
          "name": "owner",
          "type": "address"
        },
        {
          "indexed": true,
          "internalType": "address",
          "name": "approved",
          "type": "address"
        },
        {
          "indexed": true,
          "internalType": "uint256",
          "name": "tokenId",
          "type": "uint256"
        }
      ],
      "name": "Approval",
      "type": "event"
    },
    {
      "anonymous": false,
      "inputs": [
        {
          "indexed": true,
          "internalType": "address",
          "name": "owner",
          "type": "address"
        },
        {
          "indexed": true,
          "internalType": "address",
          "name": "operator",
          "type": "address"
        },
        {
          "indexed": false,
          "internalType": "bool",
          "name": "approved",
          "type": "bool"
        }
      ],
      "name": "ApprovalForAll",
      "type": "event"
    },
    {
      "anonymous": false,
      "inputs": [
        {
          "indexed": true,
          "internalType": "address",
          "name": "_contributor",
          "type": "address"
        },
        {
          "indexed": false,
          "internalType": "uint256",
          "name": "_nftAmount",
          "type": "uint256"
        },
        {
          "indexed": false,
          "internalType": "uint256",
          "name": "_tokenAmount",
          "type": "uint256"
        }
      ],
      "name": "Contributed",
      "type": "event"
    },
    {
      "anonymous": false,
      "inputs": [
        {
          "indexed": true,
          "internalType": "address",
          "name": "previousOwner",
          "type": "address"
        },
        {
          "indexed": true,
          "internalType": "address",
          "name": "newOwner",
          "type": "address"
        }
      ],
      "name": "OwnershipTransferred",
      "type": "event"
    },
    {
      "anonymous": false,
      "inputs": [
        {
          "indexed": false,
          "internalType": "address",
          "name": "account",
          "type": "address"
        }
      ],
      "name": "Paused",
      "type": "event"
    },
    {
      "anonymous": false,
      "inputs": [
        {
          "indexed": true,
          "internalType": "bytes32",
          "name": "role",
          "type": "bytes32"
        },
        {
          "indexed": true,
          "internalType": "bytes32",
          "name": "previousAdminRole",
          "type": "bytes32"
        },
        {
          "indexed": true,
          "internalType": "bytes32",
          "name": "newAdminRole",
          "type": "bytes32"
        }
      ],
      "name": "RoleAdminChanged",
      "type": "event"
    },
    {
      "anonymous": false,
      "inputs": [
        {
          "indexed": true,
          "internalType": "bytes32",
          "name": "role",
          "type": "bytes32"
        },
        {
          "indexed": true,
          "internalType": "address",
          "name": "account",
          "type": "address"
        },
        {
          "indexed": true,
          "internalType": "address",
          "name": "sender",
          "type": "address"
        }
      ],
      "name": "RoleGranted",
      "type": "event"
    },
    {
      "anonymous": false,
      "inputs": [
        {
          "indexed": true,
          "internalType": "bytes32",
          "name": "role",
          "type": "bytes32"
        },
        {
          "indexed": true,
          "internalType": "address",
          "name": "account",
          "type": "address"
        },
        {
          "indexed": true,
          "internalType": "address",
          "name": "sender",
          "type": "address"
        }
      ],
      "name": "RoleRevoked",
      "type": "event"
    },
    {
      "anonymous": false,
      "inputs": [
        {
          "indexed": true,
          "internalType": "address",
          "name": "from",
          "type": "address"
        },
        {
          "indexed": true,
          "internalType": "address",
          "name": "to",
          "type": "address"
        },
        {
          "indexed": true,
          "internalType": "uint256",
          "name": "tokenId",
          "type": "uint256"
        }
      ],
      "name": "Transfer",
      "type": "event"
    },
    {
      "anonymous": false,
      "inputs": [
        {
          "indexed": false,
          "internalType": "address",
          "name": "account",
          "type": "address"
        }
      ],
      "name": "Unpaused",
      "type": "event"
    },
    {
      "anonymous": false,
      "inputs": [
        {
          "indexed": true,
          "internalType": "address",
          "name": "withdrawer",
          "type": "address"
        },
        {
          "indexed": false,
          "internalType": "uint256",
          "name": "withdrawalAmount",
          "type": "uint256"
        }
      ],
      "name": "Withdrawn",
      "type": "event"
    },
    {
      "inputs": [],
      "name": "DEFAULT_ADMIN_ROLE",
      "outputs": [
        {
          "internalType": "bytes32",
          "name": "",
          "type": "bytes32"
        }
      ],
      "stateMutability": "view",
      "type": "function"
    },
    {
      "inputs": [],
      "name": "MINTER_ROLE",
      "outputs": [
        {
          "internalType": "bytes32",
          "name": "",
          "type": "bytes32"
        }
      ],
      "stateMutability": "view",
      "type": "function"
    },
    {
      "inputs": [],
      "name": "PAUSER_ROLE",
      "outputs": [
        {
          "internalType": "bytes32",
          "name": "",
          "type": "bytes32"
        }
      ],
      "stateMutability": "view",
      "type": "function"
    },
    {
      "inputs": [
        {
          "internalType": "string",
          "name": "name",
          "type": "string"
        },
        {
          "internalType": "string",
          "name": "symbol",
          "type": "string"
        },
        {
          "internalType": "string",
          "name": "baseTokenURI",
          "type": "string"
        }
      ],
      "name": "__ERC721Base_init",
      "outputs": [],
      "stateMutability": "nonpayable",
      "type": "function"
    },
    {
      "inputs": [
        {
          "internalType": "address",
          "name": "to",
          "type": "address"
        },
        {
          "internalType": "uint256",
          "name": "tokenId",
          "type": "uint256"
        }
      ],
      "name": "approve",
      "outputs": [],
      "stateMutability": "nonpayable",
      "type": "function"
    },
    {
      "inputs": [
        {
          "internalType": "address",
          "name": "owner",
          "type": "address"
        }
      ],
      "name": "balanceOf",
      "outputs": [
        {
          "internalType": "uint256",
          "name": "",
          "type": "uint256"
        }
      ],
      "stateMutability": "view",
      "type": "function"
    },
    {
      "inputs": [],
      "name": "contractURI",
      "outputs": [
        {
          "internalType": "string",
          "name": "",
          "type": "string"
        }
      ],
      "stateMutability": "view",
      "type": "function"
    },
    {
      "inputs": [
        {
          "internalType": "uint256",
          "name": "_nftAmountToBuy",
          "type": "uint256"
        }
      ],
      "name": "contribute",
      "outputs": [],
      "stateMutability": "payable",
      "type": "function"
    },
    {
      "inputs": [
        {
          "internalType": "address",
          "name": "",
          "type": "address"
        }
      ],
      "name": "contributions",
      "outputs": [
        {
          "internalType": "uint256",
          "name": "",
          "type": "uint256"
        }
      ],
      "stateMutability": "view",
      "type": "function"
    },
    {
      "inputs": [],
      "name": "creator",
      "outputs": [
        {
          "internalType": "address payable",
          "name": "",
          "type": "address"
        }
      ],
      "stateMutability": "view",
      "type": "function"
    },
    {
      "inputs": [],
      "name": "creatorName",
      "outputs": [
        {
          "internalType": "string",
          "name": "",
          "type": "string"
        }
      ],
      "stateMutability": "view",
      "type": "function"
    },
    {
      "inputs": [],
      "name": "currentBalance",
      "outputs": [
        {
          "internalType": "uint256",
          "name": "",
          "type": "uint256"
        }
      ],
      "stateMutability": "view",
      "type": "function"
    },
    {
      "inputs": [],
      "name": "description",
      "outputs": [
        {
          "internalType": "string",
          "name": "",
          "type": "string"
        }
      ],
      "stateMutability": "view",
      "type": "function"
    },
    {
      "inputs": [
        {
          "internalType": "string",
          "name": "_title",
          "type": "string"
        },
        {
          "internalType": "string",
          "name": "_description",
          "type": "string"
        },
        {
          "internalType": "string",
          "name": "_url",
          "type": "string"
        }
      ],
      "name": "finishWork",
      "outputs": [
        {
          "internalType": "bool",
          "name": "",
          "type": "bool"
        }
      ],
      "stateMutability": "nonpayable",
      "type": "function"
    },
    {
      "inputs": [
        {
          "internalType": "uint256",
          "name": "tokenId",
          "type": "uint256"
        }
      ],
      "name": "getApproved",
      "outputs": [
        {
          "internalType": "address",
          "name": "",
          "type": "address"
        }
      ],
      "stateMutability": "view",
      "type": "function"
    },
    {
      "inputs": [],
      "name": "getNextNFTId",
      "outputs": [
        {
          "internalType": "uint256",
          "name": "",
          "type": "uint256"
        }
      ],
      "stateMutability": "view",
      "type": "function"
    },
    {
      "inputs": [
        {
          "internalType": "bytes32",
          "name": "role",
          "type": "bytes32"
        }
      ],
      "name": "getRoleAdmin",
      "outputs": [
        {
          "internalType": "bytes32",
          "name": "",
          "type": "bytes32"
        }
      ],
      "stateMutability": "view",
      "type": "function"
    },
    {
      "inputs": [
        {
          "internalType": "bytes32",
          "name": "role",
          "type": "bytes32"
        },
        {
          "internalType": "uint256",
          "name": "index",
          "type": "uint256"
        }
      ],
      "name": "getRoleMember",
      "outputs": [
        {
          "internalType": "address",
          "name": "",
          "type": "address"
        }
      ],
      "stateMutability": "view",
      "type": "function"
    },
    {
      "inputs": [
        {
          "internalType": "bytes32",
          "name": "role",
          "type": "bytes32"
        }
      ],
      "name": "getRoleMemberCount",
      "outputs": [
        {
          "internalType": "uint256",
          "name": "",
          "type": "uint256"
        }
      ],
      "stateMutability": "view",
      "type": "function"
    },
    {
      "inputs": [
        {
          "internalType": "bytes32",
          "name": "role",
          "type": "bytes32"
        },
        {
          "internalType": "address",
          "name": "account",
          "type": "address"
        }
      ],
      "name": "grantRole",
      "outputs": [],
      "stateMutability": "nonpayable",
      "type": "function"
    },
    {
      "inputs": [
        {
          "internalType": "bytes32",
          "name": "role",
          "type": "bytes32"
        },
        {
          "internalType": "address",
          "name": "account",
          "type": "address"
        }
      ],
      "name": "hasRole",
      "outputs": [
        {
          "internalType": "bool",
          "name": "",
          "type": "bool"
        }
      ],
      "stateMutability": "view",
      "type": "function"
    },
    {
      "inputs": [
        {
          "internalType": "string",
          "name": "_name",
          "type": "string"
        },
        {
          "internalType": "string",
          "name": "_symbol",
          "type": "string"
        },
        {
          "internalType": "string",
          "name": "_baseTokenURI",
          "type": "string"
        }
      ],
      "name": "initialize",
      "outputs": [],
      "stateMutability": "nonpayable",
      "type": "function"
    },
    {
      "inputs": [
        {
          "internalType": "address",
          "name": "owner",
          "type": "address"
        },
        {
          "internalType": "address",
          "name": "operator",
          "type": "address"
        }
      ],
      "name": "isApprovedForAll",
      "outputs": [
        {
          "internalType": "bool",
          "name": "",
          "type": "bool"
        }
      ],
      "stateMutability": "view",
      "type": "function"
    },
    {
      "inputs": [],
      "name": "isWorkSubmitted",
      "outputs": [
        {
          "internalType": "bool",
          "name": "",
          "type": "bool"
        }
      ],
      "stateMutability": "view",
      "type": "function"
    },
    {
      "inputs": [],
      "name": "name",
      "outputs": [
        {
          "internalType": "string",
          "name": "",
          "type": "string"
        }
      ],
      "stateMutability": "view",
      "type": "function"
    },
    {
      "inputs": [
        {
          "internalType": "address",
          "name": "",
          "type": "address"
        }
      ],
      "name": "nftAmounts",
      "outputs": [
        {
          "internalType": "uint256",
          "name": "",
          "type": "uint256"
        }
      ],
      "stateMutability": "view",
      "type": "function"
    },
    {
      "inputs": [],
      "name": "nftIdCounter",
      "outputs": [
        {
          "internalType": "uint256",
          "name": "_value",
          "type": "uint256"
        }
      ],
      "stateMutability": "view",
      "type": "function"
    },
    {
      "inputs": [],
      "name": "nftLimit",
      "outputs": [
        {
          "internalType": "uint256",
          "name": "",
          "type": "uint256"
        }
      ],
      "stateMutability": "view",
      "type": "function"
    },
    {
      "inputs": [],
      "name": "nftPrice",
      "outputs": [
        {
          "internalType": "uint256",
          "name": "",
          "type": "uint256"
        }
      ],
      "stateMutability": "view",
      "type": "function"
    },
    {
      "inputs": [],
      "name": "nftSoldAmount",
      "outputs": [
        {
          "internalType": "uint256",
          "name": "",
          "type": "uint256"
        }
      ],
      "stateMutability": "view",
      "type": "function"
    },
    {
      "inputs": [],
      "name": "owner",
      "outputs": [
        {
          "internalType": "address",
          "name": "",
          "type": "address"
        }
      ],
      "stateMutability": "view",
      "type": "function"
    },
    {
      "inputs": [
        {
          "internalType": "uint256",
          "name": "tokenId",
          "type": "uint256"
        }
      ],
      "name": "ownerOf",
      "outputs": [
        {
          "internalType": "address",
          "name": "",
          "type": "address"
        }
      ],
      "stateMutability": "view",
      "type": "function"
    },
    {
      "inputs": [],
      "name": "pause",
      "outputs": [],
      "stateMutability": "nonpayable",
      "type": "function"
    },
    {
      "inputs": [],
      "name": "paused",
      "outputs": [
        {
          "internalType": "bool",
          "name": "",
          "type": "bool"
        }
      ],
      "stateMutability": "view",
      "type": "function"
    },
    {
      "inputs": [],
      "name": "renounceOwnership",
      "outputs": [],
      "stateMutability": "nonpayable",
      "type": "function"
    },
    {
      "inputs": [
        {
          "internalType": "bytes32",
          "name": "role",
          "type": "bytes32"
        },
        {
          "internalType": "address",
          "name": "account",
          "type": "address"
        }
      ],
      "name": "renounceRole",
      "outputs": [],
      "stateMutability": "nonpayable",
      "type": "function"
    },
    {
      "inputs": [
        {
          "internalType": "bytes32",
          "name": "role",
          "type": "bytes32"
        },
        {
          "internalType": "address",
          "name": "account",
          "type": "address"
        }
      ],
      "name": "revokeRole",
      "outputs": [],
      "stateMutability": "nonpayable",
      "type": "function"
    },
    {
      "inputs": [
        {
          "internalType": "address",
          "name": "from",
          "type": "address"
        },
        {
          "internalType": "address",
          "name": "to",
          "type": "address"
        },
        {
          "internalType": "uint256",
          "name": "tokenId",
          "type": "uint256"
        }
      ],
      "name": "safeTransferFrom",
      "outputs": [],
      "stateMutability": "nonpayable",
      "type": "function"
    },
    {
      "inputs": [
        {
          "internalType": "address",
          "name": "from",
          "type": "address"
        },
        {
          "internalType": "address",
          "name": "to",
          "type": "address"
        },
        {
          "internalType": "uint256",
          "name": "tokenId",
          "type": "uint256"
        },
        {
          "internalType": "bytes",
          "name": "_data",
          "type": "bytes"
        }
      ],
      "name": "safeTransferFrom",
      "outputs": [],
      "stateMutability": "nonpayable",
      "type": "function"
    },
    {
      "inputs": [
        {
          "internalType": "address",
          "name": "operator",
          "type": "address"
        },
        {
          "internalType": "bool",
          "name": "approved",
          "type": "bool"
        }
      ],
      "name": "setApprovalForAll",
      "outputs": [],
      "stateMutability": "nonpayable",
      "type": "function"
    },
    {
      "inputs": [
        {
          "internalType": "string",
          "name": "newBaseURI",
          "type": "string"
        }
      ],
      "name": "setBaseURI",
      "outputs": [],
      "stateMutability": "nonpayable",
      "type": "function"
    },
    {
      "inputs": [
        {
          "internalType": "string",
          "name": "newContractURI",
          "type": "string"
        }
      ],
      "name": "setContractURI",
      "outputs": [],
      "stateMutability": "nonpayable",
      "type": "function"
    },
    {
      "inputs": [
        {
          "internalType": "bytes4",
          "name": "interfaceId",
          "type": "bytes4"
        }
      ],
      "name": "supportsInterface",
      "outputs": [
        {
          "internalType": "bool",
          "name": "",
          "type": "bool"
        }
      ],
      "stateMutability": "view",
      "type": "function"
    },
    {
      "inputs": [],
      "name": "symbol",
      "outputs": [
        {
          "internalType": "string",
          "name": "",
          "type": "string"
        }
      ],
      "stateMutability": "view",
      "type": "function"
    },
    {
      "inputs": [],
      "name": "timeToSubmitWork",
      "outputs": [
        {
          "internalType": "uint256",
          "name": "",
          "type": "uint256"
        }
      ],
      "stateMutability": "view",
      "type": "function"
    },
    {
      "inputs": [],
      "name": "title",
      "outputs": [
        {
          "internalType": "string",
          "name": "",
          "type": "string"
        }
      ],
      "stateMutability": "view",
      "type": "function"
    },
    {
      "inputs": [
        {
          "internalType": "uint256",
          "name": "index",
          "type": "uint256"
        }
      ],
      "name": "tokenByIndex",
      "outputs": [
        {
          "internalType": "uint256",
          "name": "",
          "type": "uint256"
        }
      ],
      "stateMutability": "view",
      "type": "function"
    },
    {
      "inputs": [
        {
          "internalType": "address",
          "name": "owner",
          "type": "address"
        },
        {
          "internalType": "uint256",
          "name": "index",
          "type": "uint256"
        }
      ],
      "name": "tokenOfOwnerByIndex",
      "outputs": [
        {
          "internalType": "uint256",
          "name": "",
          "type": "uint256"
        }
      ],
      "stateMutability": "view",
      "type": "function"
    },
    {
      "inputs": [
        {
          "internalType": "uint256",
          "name": "tokenId",
          "type": "uint256"
        }
      ],
      "name": "tokenURI",
      "outputs": [
        {
          "internalType": "string",
          "name": "",
          "type": "string"
        }
      ],
      "stateMutability": "view",
      "type": "function"
    },
    {
      "inputs": [],
      "name": "totalSupply",
      "outputs": [
        {
          "internalType": "uint256",
          "name": "",
          "type": "uint256"
        }
      ],
      "stateMutability": "view",
      "type": "function"
    },
    {
      "inputs": [
        {
          "internalType": "address",
          "name": "from",
          "type": "address"
        },
        {
          "internalType": "address",
          "name": "to",
          "type": "address"
        },
        {
          "internalType": "uint256",
          "name": "tokenId",
          "type": "uint256"
        }
      ],
      "name": "transferFrom",
      "outputs": [],
      "stateMutability": "nonpayable",
      "type": "function"
    },
    {
      "inputs": [
        {
          "internalType": "address",
          "name": "newOwner",
          "type": "address"
        }
      ],
      "name": "transferOwnership",
      "outputs": [],
      "stateMutability": "nonpayable",
      "type": "function"
    },
    {
      "inputs": [],
      "name": "unpause",
      "outputs": [],
      "stateMutability": "nonpayable",
      "type": "function"
    },
    {
      "inputs": [],
      "name": "withdraw",
      "outputs": [],
      "stateMutability": "nonpayable",
      "type": "function"
    },
    {
      "inputs": [],
      "name": "workDescription",
      "outputs": [
        {
          "internalType": "string",
          "name": "",
          "type": "string"
        }
      ],
      "stateMutability": "view",
      "type": "function"
    },
    {
      "inputs": [],
      "name": "workTitle",
      "outputs": [
        {
          "internalType": "string",
          "name": "",
          "type": "string"
        }
      ],
      "stateMutability": "view",
      "type": "function"
    },
    {
      "inputs": [],
      "name": "workUrl",
      "outputs": [
        {
          "internalType": "string",
          "name": "",
          "type": "string"
        }
      ],
      "stateMutability": "view",
      "type": "function"
    }
  ],
  "bytecode": "0x6080604052610201805460ff191690553480156200001c57600080fd5b5060405162003cfb38038062003cfb8339810160408190526200003f9162000213565b6101f880546001600160a01b0319166001600160a01b038816179055865162000071906101f99060208a0190620000ba565b50845162000088906101fa906020880190620000ba565b5083516200009f906101fb906020870190620000ba565b506101fc929092556102035561020455506200033192505050565b828054620000c890620002de565b90600052602060002090601f016020900481019282620000ec576000855562000137565b82601f106200010757805160ff191683800117855562000137565b8280016001018555821562000137579182015b82811115620001375782518255916020019190600101906200011a565b506200014592915062000149565b5090565b5b808211156200014557600081556001016200014a565b600082601f83011262000171578081fd5b81516001600160401b03808211156200018e576200018e6200031b565b604051601f8301601f19908116603f01168101908282118183101715620001b957620001b96200031b565b81604052838152602092508683858801011115620001d5578485fd5b8491505b83821015620001f85785820183015181830184015290820190620001d9565b838211156200020957848385830101525b9695505050505050565b600080600080600080600060e0888a0312156200022e578283fd5b87516001600160401b038082111562000245578485fd5b620002538b838c0162000160565b60208b015190995091506001600160a01b038216821462000272578485fd5b60408a01519197508082111562000287578485fd5b620002958b838c0162000160565b965060608a0151915080821115620002ab578485fd5b50620002ba8a828b0162000160565b9450506080880151925060a0880151915060c0880151905092959891949750929550565b600181811c90821680620002f357607f821691505b602082108114156200031557634e487b7160e01b600052602260045260246000fd5b50919050565b634e487b7160e01b600052604160045260246000fd5b6139ba80620003416000396000f3fe6080604052600436106103765760003560e01c80638154e1f0116101d1578063a6487c5311610102578063d5391393116100a0578063e63ab1e91161006f578063e63ab1e9146109b2578063e8a3d485146109d4578063e985e9c5146109e9578063f2fde38b14610a3257600080fd5b8063d53913931461091b578063d547741f1461094f578063d759f9cf1461096f578063dff826911461098457600080fd5b8063c1cbbca7116100dc578063c1cbbca7146108b1578063c87b56dd146108c4578063ca15c873146108e4578063ce845d1d1461090457600080fd5b8063a6487c5314610859578063b88d4fde14610879578063bbf4925a1461089957600080fd5b806391d148541161016f5780639e318447116101495780639e318447146107f4578063a217fddf14610809578063a22cb4651461081e578063a3d7e0291461083e57600080fd5b806391d148541461079f578063938e3d7b146107bf57806395d89b41146107df57600080fd5b80638988e693116101ab5780638988e6931461072b5780638a99b472146107405780638da5cb5b146107605780639010d07c1461077f57600080fd5b80638154e1f0146106e857806383f7cd0d146106ff5780638456cb591461071657600080fd5b80633ac05632116102ab57806355f804b3116102495780636e4b73c1116102235780636e4b73c11461068957806370a082311461069e578063715018a6146106be5780637284e416146106d357600080fd5b806355f804b3146106315780635c975abb146106515780636352211e1461066957600080fd5b806342842e0e1161028557806342842e0e146105ae57806342e94c90146105ce5780634a79d50c146105fc5780634f6ccce71461061157600080fd5b80633ac05632146105645780633ccfd60b146105845780633f4ba83a1461059957600080fd5b80631f6f90bd116103185780632a7065ea116102f25780632a7065ea146104ed5780632f2ff15d146105045780632f745c591461052457806336568abe1461054457600080fd5b80631f6f90bd1461048757806323b872dd1461049c578063248a9ca3146104bc57600080fd5b8063081812fc11610354578063081812fc1461040b578063095ea7b31461042b5780630d39fc811461044d57806318160ddd1461047257600080fd5b806301ffc9a71461037b57806302d05d3f146103b057806306fdde03146103e9575b600080fd5b34801561038757600080fd5b5061039b6103963660046134fd565b610a52565b60405190151581526020015b60405180910390f35b3480156103bc57600080fd5b506101f8546103d1906001600160a01b031681565b6040516001600160a01b0390911681526020016103a7565b3480156103f557600080fd5b506103fe610a63565b6040516103a791906136f9565b34801561041757600080fd5b506103d16104263660046134a2565b610af5565b34801561043757600080fd5b5061044b610446366004613479565b610b8f565b005b34801561045957600080fd5b506104646102035481565b6040519081526020016103a7565b34801561047e57600080fd5b5060fd54610464565b34801561049357600080fd5b506103fe610ca5565b3480156104a857600080fd5b5061044b6104b736600461338b565b610d34565b3480156104c857600080fd5b506104646104d73660046134a2565b600090815261012d602052604090206001015490565b3480156104f957600080fd5b506104646102045481565b34801561051057600080fd5b5061044b61051f3660046134ba565b610d65565b34801561053057600080fd5b5061046461053f366004613479565b610d88565b34801561055057600080fd5b5061044b61055f3660046134ba565b610e1e565b34801561057057600080fd5b5061044b61057f366004613568565b610e41565b34801561059057600080fd5b5061044b610f3c565b3480156105a557600080fd5b5061044b611019565b3480156105ba57600080fd5b5061044b6105c936600461338b565b611081565b3480156105da57600080fd5b506104646105e936600461333f565b6102056020526000908152604090205481565b34801561060857600080fd5b506103fe61109c565b34801561061d57600080fd5b5061046461062c3660046134a2565b6110aa565b34801561063d57600080fd5b5061044b61064c366004613535565b61114b565b34801561065d57600080fd5b5060975460ff1661039b565b34801561067557600080fd5b506103d16106843660046134a2565b6111b3565b34801561069557600080fd5b5061046461122a565b3480156106aa57600080fd5b506104646106b936600461333f565b61123b565b3480156106ca57600080fd5b5061044b6112c2565b3480156106df57600080fd5b506103fe611327565b3480156106f457600080fd5b506104646101fc5481565b34801561070b57600080fd5b506104646102025481565b34801561072257600080fd5b5061044b611335565b34801561073757600080fd5b506103fe61139b565b34801561074c57600080fd5b5061039b61075b366004613568565b6113a9565b34801561076c57600080fd5b50610191546001600160a01b03166103d1565b34801561078b57600080fd5b506103d161079a3660046134dc565b61144d565b3480156107ab57600080fd5b5061039b6107ba3660046134ba565b61146d565b3480156107cb57600080fd5b5061044b6107da366004613535565b611499565b3480156107eb57600080fd5b506103fe6114fd565b34801561080057600080fd5b506103fe61150c565b34801561081557600080fd5b50610464600081565b34801561082a57600080fd5b5061044b61083936600461343f565b61151a565b34801561084a57600080fd5b506102015461039b9060ff1681565b34801561086557600080fd5b5061044b610874366004613568565b6115df565b34801561088557600080fd5b5061044b6108943660046133c6565b611649565b3480156108a557600080fd5b506101f7546104649081565b61044b6108bf3660046134a2565b61167b565b3480156108d057600080fd5b506103fe6108df3660046134a2565b611851565b3480156108f057600080fd5b506104646108ff3660046134a2565b61192b565b34801561091057600080fd5b506104646102005481565b34801561092757600080fd5b506104647f9f2df0fed2c77648de5860a4cc508cd0818c85b8b8a1ab4ceeef8d981c8956a681565b34801561095b57600080fd5b5061044b61096a3660046134ba565b611943565b34801561097b57600080fd5b506103fe61194d565b34801561099057600080fd5b5061046461099f36600461333f565b6102066020526000908152604090205481565b3480156109be57600080fd5b5061046460008051602061396583398151915281565b3480156109e057600080fd5b506103fe61195b565b3480156109f557600080fd5b5061039b610a04366004613359565b6001600160a01b039182166000908152606a6020908152604080832093909416825291909152205460ff1690565b348015610a3e57600080fd5b5061044b610a4d36600461333f565b61196b565b6000610a5d82611a37565b92915050565b606060658054610a72906138a2565b80601f0160208091040260200160405190810160405280929190818152602001828054610a9e906138a2565b8015610aeb5780601f10610ac057610100808354040283529160200191610aeb565b820191906000526020600020905b815481529060010190602001808311610ace57829003601f168201915b5050505050905090565b6000818152606760205260408120546001600160a01b0316610b735760405162461bcd60e51b815260206004820152602c60248201527f4552433732313a20617070726f76656420717565727920666f72206e6f6e657860448201526b34b9ba32b73a103a37b5b2b760a11b60648201526084015b60405180910390fd5b506000908152606960205260409020546001600160a01b031690565b6000610b9a826111b3565b9050806001600160a01b0316836001600160a01b03161415610c085760405162461bcd60e51b815260206004820152602160248201527f4552433732313a20617070726f76616c20746f2063757272656e74206f776e656044820152603960f91b6064820152608401610b6a565b336001600160a01b0382161480610c245750610c248133610a04565b610c965760405162461bcd60e51b815260206004820152603860248201527f4552433732313a20617070726f76652063616c6c6572206973206e6f74206f7760448201527f6e6572206e6f7220617070726f76656420666f7220616c6c00000000000000006064820152608401610b6a565b610ca08383611a5c565b505050565b6101f98054610cb3906138a2565b80601f0160208091040260200160405190810160405280929190818152602001828054610cdf906138a2565b8015610d2c5780601f10610d0157610100808354040283529160200191610d2c565b820191906000526020600020905b815481529060010190602001808311610d0f57829003601f168201915b505050505081565b610d3e3382611aca565b610d5a5760405162461bcd60e51b8152600401610b6a906137ac565b610ca0838383611bc1565b610d6f8282611d6c565b600082815261015f60205260409020610ca09082611d93565b6000610d938361123b565b8210610df55760405162461bcd60e51b815260206004820152602b60248201527f455243373231456e756d657261626c653a206f776e657220696e646578206f7560448201526a74206f6620626f756e647360a81b6064820152608401610b6a565b506001600160a01b0391909116600090815260fb60209081526040808320938352929052205490565b610e288282611da8565b600082815261015f60205260409020610ca09082611e22565b600054610100900460ff1680610e5a575060005460ff16155b610e765760405162461bcd60e51b8152600401610b6a9061375e565b600054610100900460ff16158015610e98576000805461ffff19166101011790555b8151610eac906101c39060208501906131f5565b50610eb78484611e37565b610ebf611ebe565b610ec7611f49565b610ecf611fb0565b610ed761200f565b610ee2600033612076565b610f0c7f9f2df0fed2c77648de5860a4cc508cd0818c85b8b8a1ab4ceeef8d981c8956a633612076565b610f2460008051602061396583398151915233612076565b8015610f36576000805461ff00191690555b50505050565b6101f8546001600160a01b03163314610fab5760405162461bcd60e51b815260206004820152602b60248201527f596f75206d757374206265207468652070726f6a6563742063726561746f722060448201526a746f20776974686472617760a81b6064820152608401610b6a565b6040514790339082156108fc029083906000818181858888f19350505050158015610fda573d6000803e3d6000fd5b5060006102005560405181815233907f7084f5476618d8e60b11ef0d7d3f06914655adb8793e28ff7f018d4c76d505d59060200160405180910390a250565b6110316000805160206139658339815191523361146d565b6110775760405162461bcd60e51b815260206004820152601760248201527622a9219b9918a130b9b29d1037b7363c96b830bab9b2b960491b6044820152606401610b6a565b61107f612080565b565b610ca083838360405180602001604052806000815250611649565b6101fa8054610cb3906138a2565b60006110b560fd5490565b82106111185760405162461bcd60e51b815260206004820152602c60248201527f455243373231456e756d657261626c653a20676c6f62616c20696e646578206f60448201526b7574206f6620626f756e647360a01b6064820152608401610b6a565b60fd828154811061113957634e487b7160e01b600052603260045260246000fd5b90600052602060002001549050919050565b61115660003361146d565b61119b5760405162461bcd60e51b815260206004820152601660248201527522a9219b9918a130b9b29d1037b7363c96b0b236b4b760511b6044820152606401610b6a565b80516111af906101c39060208401906131f5565b5050565b6000818152606760205260408120546001600160a01b031680610a5d5760405162461bcd60e51b815260206004820152602960248201527f4552433732313a206f776e657220717565727920666f72206e6f6e657869737460448201526832b73a103a37b5b2b760b91b6064820152608401610b6a565b60006112366101f75490565b905090565b60006001600160a01b0382166112a65760405162461bcd60e51b815260206004820152602a60248201527f4552433732313a2062616c616e636520717565727920666f7220746865207a65604482015269726f206164647265737360b01b6064820152608401610b6a565b506001600160a01b031660009081526068602052604090205490565b610191546001600160a01b0316331461131d5760405162461bcd60e51b815260206004820181905260248201527f4f776e61626c653a2063616c6c6572206973206e6f7420746865206f776e65726044820152606401610b6a565b61107f6000612113565b6101fb8054610cb3906138a2565b61134d6000805160206139658339815191523361146d565b6113935760405162461bcd60e51b815260206004820152601760248201527622a9219b9918a130b9b29d1037b7363c96b830bab9b2b960491b6044820152606401610b6a565b61107f612166565b6101ff8054610cb3906138a2565b6101f8546000906001600160a01b031633146113f65760405162461bcd60e51b815260206004820152600c60248201526b27b7363c9031b932b0ba37b960a11b6044820152606401610b6a565b610201805460ff191660011790558351611418906101fd9060208701906131f5565b50825161142d906101fe9060208601906131f5565b508151611442906101ff9060208501906131f5565b506001949350505050565b600082815261015f6020526040812061146690836121e1565b9392505050565b600091825261012d602090815260408084206001600160a01b0393909316845291905290205460ff1690565b6114a460003361146d565b6114e95760405162461bcd60e51b815260206004820152601660248201527522a9219b9918a130b9b29d1037b7363c96b0b236b4b760511b6044820152606401610b6a565b80516111af906101c49060208401906131f5565b606060668054610a72906138a2565b6101fe8054610cb3906138a2565b6001600160a01b0382163314156115735760405162461bcd60e51b815260206004820152601960248201527f4552433732313a20617070726f766520746f2063616c6c6572000000000000006044820152606401610b6a565b336000818152606a602090815260408083206001600160a01b03871680855290835292819020805460ff191686151590811790915590519081529192917f17307eab39ab6107e8899845ad3d59bd9653f200f220920489ca2b5937696c31910160405180910390a35050565b600054610100900460ff16806115f8575060005460ff16155b6116145760405162461bcd60e51b8152600401610b6a9061375e565b600054610100900460ff16158015611636576000805461ffff19166101011790555b6116418484846121ed565b610f2461224f565b6116533383611aca565b61166f5760405162461bcd60e51b8152600401610b6a906137ac565b610f36848484846122ae565b6101f8546001600160a01b03163314156116e85760405162461bcd60e51b815260206004820152602860248201527f596f752063616e277420636f6e7472696275746520746f20796f7572206f776e604482015267081c1c9bda9958dd60c21b6064820152608401610b6a565b61020454610202546116fa90836122e1565b11156117335760405162461bcd60e51b815260206004820152600860248201526714dbdb19081bdd5d60c21b6044820152606401610b6a565b600061020354826117449190613829565b905034811461178e5760405162461bcd60e51b8152602060048201526016602482015275151bdad95b88185b5bdd5b9d081a5b98dbdc9c9958dd60521b6044820152606401610b6a565b6102005461179c90346122e1565b61020055610202546117ae90836122e1565b6102025533600090815261020560205260409020546117cd90346122e1565b3360009081526102056020908152604080832093909355610206905220546117f590836122e1565b3360008181526102066020526040902091909155611813908361230d565b6040805183815234602082015233917ffa35a310d7113dddce1c275da946348e9aaebf9050b00b372033c4d84b0bd6eb910160405180910390a25050565b6000818152606760205260409020546060906001600160a01b03166118d05760405162461bcd60e51b815260206004820152602f60248201527f4552433732314d657461646174613a2055524920717565727920666f72206e6f60448201526e3732bc34b9ba32b73a103a37b5b2b760891b6064820152608401610b6a565b60006118da61234c565b905060008151116118fa5760405180602001604052806000815250611466565b806119048461235c565b604051602001611915929190613618565b6040516020818303038152906040529392505050565b600081815261015f60205260408120610a5d90612476565b610e288282612480565b6101fd8054610cb3906138a2565b60606101c48054610a72906138a2565b610191546001600160a01b031633146119c65760405162461bcd60e51b815260206004820181905260248201527f4f776e61626c653a2063616c6c6572206973206e6f7420746865206f776e65726044820152606401610b6a565b6001600160a01b038116611a2b5760405162461bcd60e51b815260206004820152602660248201527f4f776e61626c653a206e6577206f776e657220697320746865207a65726f206160448201526564647265737360d01b6064820152608401610b6a565b611a3481612113565b50565b60006001600160e01b03198216635a05180f60e01b1480610a5d5750610a5d826124a7565b600081815260696020526040902080546001600160a01b0319166001600160a01b0384169081179091558190611a91826111b3565b6001600160a01b03167f8c5be1e5ebec7d5bd14f71427d1e84f3dd0314c0f7b2291e5b200ac8c7c3b92560405160405180910390a45050565b6000818152606760205260408120546001600160a01b0316611b435760405162461bcd60e51b815260206004820152602c60248201527f4552433732313a206f70657261746f7220717565727920666f72206e6f6e657860448201526b34b9ba32b73a103a37b5b2b760a11b6064820152608401610b6a565b6000611b4e836111b3565b9050806001600160a01b0316846001600160a01b03161480611b895750836001600160a01b0316611b7e84610af5565b6001600160a01b0316145b80611bb957506001600160a01b038082166000908152606a602090815260408083209388168352929052205460ff165b949350505050565b826001600160a01b0316611bd4826111b3565b6001600160a01b031614611c3c5760405162461bcd60e51b815260206004820152602960248201527f4552433732313a207472616e73666572206f6620746f6b656e2074686174206960448201526839903737ba1037bbb760b91b6064820152608401610b6a565b6001600160a01b038216611c9e5760405162461bcd60e51b8152602060048201526024808201527f4552433732313a207472616e7366657220746f20746865207a65726f206164646044820152637265737360e01b6064820152608401610b6a565b611ca98383836124cc565b611cb4600082611a5c565b6001600160a01b0383166000908152606860205260408120805460019290611cdd908490613848565b90915550506001600160a01b0382166000908152606860205260408120805460019290611d0b9084906137fd565b909155505060008181526067602052604080822080546001600160a01b0319166001600160a01b0386811691821790925591518493918716917fddf252ad1be2c89b69c2b068fc378daa952ba7f163c4a11628f55a4df523b3ef91a4505050565b600082815261012d6020526040902060010154611d8981336124d7565b610ca0838361253b565b6000611466836001600160a01b0384166125c2565b6001600160a01b0381163314611e185760405162461bcd60e51b815260206004820152602f60248201527f416363657373436f6e74726f6c3a2063616e206f6e6c792072656e6f756e636560448201526e103937b632b9903337b91039b2b63360891b6064820152608401610b6a565b6111af8282612611565b6000611466836001600160a01b038416612679565b600054610100900460ff1680611e50575060005460ff16155b611e6c5760405162461bcd60e51b8152600401610b6a9061375e565b600054610100900460ff16158015611e8e576000805461ffff19166101011790555b611e96612796565b611e9e612796565b611ea88383612800565b8015610ca0576000805461ff0019169055505050565b600054610100900460ff1680611ed7575060005460ff16155b611ef35760405162461bcd60e51b8152600401610b6a9061375e565b600054610100900460ff16158015611f15576000805461ffff19166101011790555b611f1d612796565b611f25612796565b611f2d612895565b611f35612796565b8015611a34576000805461ff001916905550565b600054610100900460ff1680611f62575060005460ff16155b611f7e5760405162461bcd60e51b8152600401610b6a9061375e565b600054610100900460ff16158015611fa0576000805461ffff19166101011790555b611fa8612796565b611f2d612796565b600054610100900460ff1680611fc9575060005460ff16155b611fe55760405162461bcd60e51b8152600401610b6a9061375e565b600054610100900460ff16158015612007576000805461ffff19166101011790555b611fa0612796565b600054610100900460ff1680612028575060005460ff16155b6120445760405162461bcd60e51b8152600401610b6a9061375e565b600054610100900460ff16158015612066576000805461ffff19166101011790555b61206e612796565b611f3561290a565b610d6f828261296a565b60975460ff166120c95760405162461bcd60e51b815260206004820152601460248201527314185d5cd8589b194e881b9bdd081c185d5cd95960621b6044820152606401610b6a565b6097805460ff191690557f5db9ee0a495bf2e6ff9c91a7834c1ba4fdd244a5e8aa4e537bd38aeae4b073aa335b6040516001600160a01b03909116815260200160405180910390a1565b61019180546001600160a01b038381166001600160a01b0319831681179093556040519116919082907f8be0079c531659141344cd1fd0a4f28419497f9722a3daafe3b4186f6b6457e090600090a35050565b60975460ff16156121ac5760405162461bcd60e51b815260206004820152601060248201526f14185d5cd8589b194e881c185d5cd95960821b6044820152606401610b6a565b6097805460ff191660011790557f62e78cea01bee320cd4e420270b5ea74000d11b0c9f74754ebdbfc544b05a2586120f63390565b60006114668383612974565b600054610100900460ff1680612206575060005460ff16155b6122225760405162461bcd60e51b8152600401610b6a9061375e565b600054610100900460ff16158015612244576000805461ffff19166101011790555b610f24848484610e41565b600054610100900460ff1680612268575060005460ff16155b6122845760405162461bcd60e51b8152600401610b6a9061375e565b600054610100900460ff161580156122a6576000805461ffff19166101011790555b611f356129ac565b6122b9848484611bc1565b6122c584848484612a1d565b610f365760405162461bcd60e51b8152600401610b6a9061370c565b60006122ed82846137fd565b905082811015610a5d57634e487b7160e01b600052600160045260246000fd5b60005b81811015610ca05761232b836123266101f75490565b612b1f565b61233a6101f780546001019055565b80612344816138dd565b915050612310565b60606101c38054610a72906138a2565b6060816123805750506040805180820190915260018152600360fc1b602082015290565b8160005b81156123aa5780612394816138dd565b91506123a39050600a83613815565b9150612384565b60008167ffffffffffffffff8111156123d357634e487b7160e01b600052604160045260246000fd5b6040519080825280601f01601f1916602001820160405280156123fd576020820181803683370190505b5090505b8415611bb957612412600183613848565b915061241f600a866138f8565b61242a9060306137fd565b60f81b81838151811061244d57634e487b7160e01b600052603260045260246000fd5b60200101906001600160f81b031916908160001a90535061246f600a86613815565b9450612401565b6000610a5d825490565b600082815261012d602052604090206001015461249d81336124d7565b610ca08383612611565b60006001600160e01b03198216637965db0b60e01b1480610a5d5750610a5d82612b39565b610ca0838383612b5e565b6124e1828261146d565b6111af576124f9816001600160a01b03166014612c21565b612504836020612c21565b604051602001612515929190613647565b60408051601f198184030181529082905262461bcd60e51b8252610b6a916004016136f9565b612545828261146d565b6111af57600082815261012d602090815260408083206001600160a01b03851684529091529020805460ff1916600117905561257e3390565b6001600160a01b0316816001600160a01b0316837f2f8788117e7eff1d82e926ec794901d17c78024a50270940304540a733656f0d60405160405180910390a45050565b600081815260018301602052604081205461260957508154600181810184556000848152602080822090930184905584548482528286019093526040902091909155610a5d565b506000610a5d565b61261b828261146d565b156111af57600082815261012d602090815260408083206001600160a01b0385168085529252808320805460ff1916905551339285917ff6391f5c32d9c69d2a47ea670b442974b53935d1edc7fd64eb21e047a839171b9190a45050565b6000818152600183016020526040812054801561278c57600061269d600183613848565b85549091506000906126b190600190613848565b90508181146127325760008660000182815481106126df57634e487b7160e01b600052603260045260246000fd5b906000526020600020015490508087600001848154811061271057634e487b7160e01b600052603260045260246000fd5b6000918252602080832090910192909255918252600188019052604090208390555b855486908061275157634e487b7160e01b600052603160045260246000fd5b600190038181906000526020600020016000905590558560010160008681526020019081526020016000206000905560019350505050610a5d565b6000915050610a5d565b600054610100900460ff16806127af575060005460ff16155b6127cb5760405162461bcd60e51b8152600401610b6a9061375e565b600054610100900460ff16158015611f35576000805461ffff19166101011790558015611a34576000805461ff001916905550565b600054610100900460ff1680612819575060005460ff16155b6128355760405162461bcd60e51b8152600401610b6a9061375e565b600054610100900460ff16158015612857576000805461ffff19166101011790555b825161286a9060659060208601906131f5565b50815161287e9060669060208501906131f5565b508015610ca0576000805461ff0019169055505050565b600054610100900460ff16806128ae575060005460ff16155b6128ca5760405162461bcd60e51b8152600401610b6a9061375e565b600054610100900460ff161580156128ec576000805461ffff19166101011790555b6097805460ff191690558015611a34576000805461ff001916905550565b600054610100900460ff1680612923575060005460ff16155b61293f5760405162461bcd60e51b8152600401610b6a9061375e565b600054610100900460ff16158015612961576000805461ffff19166101011790555b611f3533612113565b6111af828261253b565b600082600001828154811061299957634e487b7160e01b600052603260045260246000fd5b9060005260206000200154905092915050565b600054610100900460ff16806129c5575060005460ff16155b6129e15760405162461bcd60e51b8152600401610b6a9061375e565b600054610100900460ff16158015612a03576000805461ffff19166101011790555b60016101c5558015611a34576000805461ff001916905550565b60006001600160a01b0384163b1561144257604051630a85bd0160e11b81526001600160a01b0385169063150b7a0290612a619033908990889088906004016136bc565b602060405180830381600087803b158015612a7b57600080fd5b505af1925050508015612aab575060408051601f3d908101601f19168201909252612aa891810190613519565b60015b612b05573d808015612ad9576040519150601f19603f3d011682016040523d82523d6000602084013e612ade565b606091505b508051612afd5760405162461bcd60e51b8152600401610b6a9061370c565b805181602001fd5b6001600160e01b031916630a85bd0160e11b149050611bb9565b6111af828260405180602001604052806000815250612e03565b60006001600160e01b0319821663780e9d6360e01b1480610a5d5750610a5d82612e36565b612b69838383612e86565b6001600160a01b038316612bc457612bbf8160fd8054600083815260fe60205260408120829055600182018355919091527f9346ac6dd7de6b96975fec380d4d994c4c12e6a8897544f22915316cc6cca2800155565b612be7565b816001600160a01b0316836001600160a01b031614612be757612be78382612eed565b6001600160a01b038216612bfe57610ca081612f8a565b826001600160a01b0316826001600160a01b031614610ca057610ca08282613063565b60606000612c30836002613829565b612c3b9060026137fd565b67ffffffffffffffff811115612c6157634e487b7160e01b600052604160045260246000fd5b6040519080825280601f01601f191660200182016040528015612c8b576020820181803683370190505b509050600360fc1b81600081518110612cb457634e487b7160e01b600052603260045260246000fd5b60200101906001600160f81b031916908160001a905350600f60fb1b81600181518110612cf157634e487b7160e01b600052603260045260246000fd5b60200101906001600160f81b031916908160001a9053506000612d15846002613829565b612d209060016137fd565b90505b6001811115612db4576f181899199a1a9b1b9c1cb0b131b232b360811b85600f1660108110612d6257634e487b7160e01b600052603260045260246000fd5b1a60f81b828281518110612d8657634e487b7160e01b600052603260045260246000fd5b60200101906001600160f81b031916908160001a90535060049490941c93612dad8161388b565b9050612d23565b5083156114665760405162461bcd60e51b815260206004820181905260248201527f537472696e67733a20686578206c656e67746820696e73756666696369656e746044820152606401610b6a565b612e0d83836130a7565b612e1a6000848484612a1d565b610ca05760405162461bcd60e51b8152600401610b6a9061370c565b60006001600160e01b031982166380ac58cd60e01b1480612e6757506001600160e01b03198216635b5e139f60e01b145b80610a5d57506301ffc9a760e01b6001600160e01b0319831614610a5d565b60975460ff1615610ca05760405162461bcd60e51b815260206004820152602b60248201527f4552433732315061757361626c653a20746f6b656e207472616e73666572207760448201526a1a1a5b19481c185d5cd95960aa1b6064820152608401610b6a565b60006001612efa8461123b565b612f049190613848565b600083815260fc6020526040902054909150808214612f57576001600160a01b038416600090815260fb60209081526040808320858452825280832054848452818420819055835260fc90915290208190555b50600091825260fc602090815260408084208490556001600160a01b03909416835260fb81528383209183525290812055565b60fd54600090612f9c90600190613848565b600083815260fe602052604081205460fd8054939450909284908110612fd257634e487b7160e01b600052603260045260246000fd5b906000526020600020015490508060fd838154811061300157634e487b7160e01b600052603260045260246000fd5b600091825260208083209091019290925582815260fe909152604080822084905585825281205560fd80548061304757634e487b7160e01b600052603160045260246000fd5b6001900381819060005260206000200160009055905550505050565b600061306e8361123b565b6001600160a01b03909316600090815260fb60209081526040808320868452825280832085905593825260fc9052919091209190915550565b6001600160a01b0382166130fd5760405162461bcd60e51b815260206004820181905260248201527f4552433732313a206d696e7420746f20746865207a65726f20616464726573736044820152606401610b6a565b6000818152606760205260409020546001600160a01b0316156131625760405162461bcd60e51b815260206004820152601c60248201527f4552433732313a20746f6b656e20616c7265616479206d696e746564000000006044820152606401610b6a565b61316e600083836124cc565b6001600160a01b03821660009081526068602052604081208054600192906131979084906137fd565b909155505060008181526067602052604080822080546001600160a01b0319166001600160a01b03861690811790915590518392907fddf252ad1be2c89b69c2b068fc378daa952ba7f163c4a11628f55a4df523b3ef908290a45050565b828054613201906138a2565b90600052602060002090601f0160209004810192826132235760008555613269565b82601f1061323c57805160ff1916838001178555613269565b82800160010185558215613269579182015b8281111561326957825182559160200191906001019061324e565b50613275929150613279565b5090565b5b80821115613275576000815560010161327a565b600067ffffffffffffffff808411156132a9576132a9613938565b604051601f8501601f19908116603f011681019082821181831017156132d1576132d1613938565b816040528093508581528686860111156132ea57600080fd5b858560208301376000602087830101525050509392505050565b80356001600160a01b038116811461331b57600080fd5b919050565b600082601f830112613330578081fd5b6114668383356020850161328e565b600060208284031215613350578081fd5b61146682613304565b6000806040838503121561336b578081fd5b61337483613304565b915061338260208401613304565b90509250929050565b60008060006060848603121561339f578081fd5b6133a884613304565b92506133b660208501613304565b9150604084013590509250925092565b600080600080608085870312156133db578081fd5b6133e485613304565b93506133f260208601613304565b925060408501359150606085013567ffffffffffffffff811115613414578182fd5b8501601f81018713613424578182fd5b6134338782356020840161328e565b91505092959194509250565b60008060408385031215613451578182fd5b61345a83613304565b91506020830135801515811461346e578182fd5b809150509250929050565b6000806040838503121561348b578182fd5b61349483613304565b946020939093013593505050565b6000602082840312156134b3578081fd5b5035919050565b600080604083850312156134cc578182fd5b8235915061338260208401613304565b600080604083850312156134ee578182fd5b50508035926020909101359150565b60006020828403121561350e578081fd5b81356114668161394e565b60006020828403121561352a578081fd5b81516114668161394e565b600060208284031215613546578081fd5b813567ffffffffffffffff81111561355c578182fd5b611bb984828501613320565b60008060006060848603121561357c578283fd5b833567ffffffffffffffff80821115613593578485fd5b61359f87838801613320565b945060208601359150808211156135b4578384fd5b6135c087838801613320565b935060408601359150808211156135d5578283fd5b506135e286828701613320565b9150509250925092565b6000815180845261360481602086016020860161385f565b601f01601f19169290920160200192915050565b6000835161362a81846020880161385f565b83519083019061363e81836020880161385f565b01949350505050565b7f416363657373436f6e74726f6c3a206163636f756e742000000000000000000081526000835161367f81601785016020880161385f565b7001034b99036b4b9b9b4b733903937b6329607d1b60179184019182015283516136b081602884016020880161385f565b01602801949350505050565b6001600160a01b03858116825284166020820152604081018390526080606082018190526000906136ef908301846135ec565b9695505050505050565b60208152600061146660208301846135ec565b60208082526032908201527f4552433732313a207472616e7366657220746f206e6f6e20455243373231526560408201527131b2b4bb32b91034b6b83632b6b2b73a32b960711b606082015260800190565b6020808252602e908201527f496e697469616c697a61626c653a20636f6e747261637420697320616c72656160408201526d191e481a5b9a5d1a585b1a5e995960921b606082015260800190565b60208082526031908201527f4552433732313a207472616e736665722063616c6c6572206973206e6f74206f6040820152701ddb995c881b9bdc88185c1c1c9bdd9959607a1b606082015260800190565b600082198211156138105761381061390c565b500190565b60008261382457613824613922565b500490565b60008160001904831182151516156138435761384361390c565b500290565b60008282101561385a5761385a61390c565b500390565b60005b8381101561387a578181015183820152602001613862565b83811115610f365750506000910152565b60008161389a5761389a61390c565b506000190190565b600181811c908216806138b657607f821691505b602082108114156138d757634e487b7160e01b600052602260045260246000fd5b50919050565b60006000198214156138f1576138f161390c565b5060010190565b60008261390757613907613922565b500690565b634e487b7160e01b600052601160045260246000fd5b634e487b7160e01b600052601260045260246000fd5b634e487b7160e01b600052604160045260246000fd5b6001600160e01b031981168114611a3457600080fdfe65d7a28e3265b37a6474929f336521b332c1681b933f6cb9f3376673440d862aa26469706673582212204a5284458f15f7d7d44a03f35ee0dceebe29a62d614a5bdae0a9e655d8f2899a64736f6c63430008040033",
  "linkReferences": {},
  "deployedLinkReferences": {}
}