{
  "_format": "hh-sol-artifact-1",
  "contractName": "Project",
  "sourceName": "contracts/Project.sol",
  "abi": [
    {
      "inputs": [
        {
          "internalType": "string",
          "name": "_creatorName",
          "type": "string"
        },
        {
          "internalType": "address payable",
          "name": "_creator",
          "type": "address"
        },
        {
          "internalType": "string",
          "name": "_title",
          "type": "string"
        },
        {
          "internalType": "string",
          "name": "_description",
          "type": "string"
        },
        {
          "internalType": "uint256",
          "name": "_timeToSubmitWork",
          "type": "uint256"
        },
        {
          "internalType": "uint256",
          "name": "_price",
          "type": "uint256"
        },
        {
          "internalType": "uint256",
          "name": "_limit",
          "type": "uint256"
        }
      ],
      "stateMutability": "nonpayable",
      "type": "constructor"
    },
    {
      "anonymous": false,
      "inputs": [
        {
          "indexed": true,
          "internalType": "address",
          "name": "owner",
          "type": "address"
        },
        {
          "indexed": true,
          "internalType": "address",
          "name": "approved",
          "type": "address"
        },
        {
          "indexed": true,
          "internalType": "uint256",
          "name": "tokenId",
          "type": "uint256"
        }
      ],
      "name": "Approval",
      "type": "event"
    },
    {
      "anonymous": false,
      "inputs": [
        {
          "indexed": true,
          "internalType": "address",
          "name": "owner",
          "type": "address"
        },
        {
          "indexed": true,
          "internalType": "address",
          "name": "operator",
          "type": "address"
        },
        {
          "indexed": false,
          "internalType": "bool",
          "name": "approved",
          "type": "bool"
        }
      ],
      "name": "ApprovalForAll",
      "type": "event"
    },
    {
      "anonymous": false,
      "inputs": [
        {
          "indexed": true,
          "internalType": "address",
          "name": "_contributor",
          "type": "address"
        },
        {
          "indexed": false,
          "internalType": "uint256",
          "name": "_nftAmount",
          "type": "uint256"
        },
        {
          "indexed": false,
          "internalType": "uint256",
          "name": "_tokenAmount",
          "type": "uint256"
        }
      ],
      "name": "Contributed",
      "type": "event"
    },
    {
      "anonymous": false,
      "inputs": [
        {
          "indexed": true,
          "internalType": "address",
          "name": "previousOwner",
          "type": "address"
        },
        {
          "indexed": true,
          "internalType": "address",
          "name": "newOwner",
          "type": "address"
        }
      ],
      "name": "OwnershipTransferred",
      "type": "event"
    },
    {
      "anonymous": false,
      "inputs": [
        {
          "indexed": false,
          "internalType": "address",
          "name": "account",
          "type": "address"
        }
      ],
      "name": "Paused",
      "type": "event"
    },
    {
      "anonymous": false,
      "inputs": [
        {
          "indexed": true,
          "internalType": "bytes32",
          "name": "role",
          "type": "bytes32"
        },
        {
          "indexed": true,
          "internalType": "bytes32",
          "name": "previousAdminRole",
          "type": "bytes32"
        },
        {
          "indexed": true,
          "internalType": "bytes32",
          "name": "newAdminRole",
          "type": "bytes32"
        }
      ],
      "name": "RoleAdminChanged",
      "type": "event"
    },
    {
      "anonymous": false,
      "inputs": [
        {
          "indexed": true,
          "internalType": "bytes32",
          "name": "role",
          "type": "bytes32"
        },
        {
          "indexed": true,
          "internalType": "address",
          "name": "account",
          "type": "address"
        },
        {
          "indexed": true,
          "internalType": "address",
          "name": "sender",
          "type": "address"
        }
      ],
      "name": "RoleGranted",
      "type": "event"
    },
    {
      "anonymous": false,
      "inputs": [
        {
          "indexed": true,
          "internalType": "bytes32",
          "name": "role",
          "type": "bytes32"
        },
        {
          "indexed": true,
          "internalType": "address",
          "name": "account",
          "type": "address"
        },
        {
          "indexed": true,
          "internalType": "address",
          "name": "sender",
          "type": "address"
        }
      ],
      "name": "RoleRevoked",
      "type": "event"
    },
    {
      "anonymous": false,
      "inputs": [
        {
          "indexed": true,
          "internalType": "address",
          "name": "from",
          "type": "address"
        },
        {
          "indexed": true,
          "internalType": "address",
          "name": "to",
          "type": "address"
        },
        {
          "indexed": true,
          "internalType": "uint256",
          "name": "tokenId",
          "type": "uint256"
        }
      ],
      "name": "Transfer",
      "type": "event"
    },
    {
      "anonymous": false,
      "inputs": [
        {
          "indexed": false,
          "internalType": "address",
          "name": "account",
          "type": "address"
        }
      ],
      "name": "Unpaused",
      "type": "event"
    },
    {
      "anonymous": false,
      "inputs": [
        {
          "indexed": true,
          "internalType": "address",
          "name": "withdrawer",
          "type": "address"
        },
        {
          "indexed": false,
          "internalType": "uint256",
          "name": "withdrawalAmount",
          "type": "uint256"
        }
      ],
      "name": "Withdrawn",
      "type": "event"
    },
    {
      "inputs": [],
      "name": "DEFAULT_ADMIN_ROLE",
      "outputs": [
        {
          "internalType": "bytes32",
          "name": "",
          "type": "bytes32"
        }
      ],
      "stateMutability": "view",
      "type": "function"
    },
    {
      "inputs": [],
      "name": "MINTER_ROLE",
      "outputs": [
        {
          "internalType": "bytes32",
          "name": "",
          "type": "bytes32"
        }
      ],
      "stateMutability": "view",
      "type": "function"
    },
    {
      "inputs": [],
      "name": "PAUSER_ROLE",
      "outputs": [
        {
          "internalType": "bytes32",
          "name": "",
          "type": "bytes32"
        }
      ],
      "stateMutability": "view",
      "type": "function"
    },
    {
      "inputs": [
        {
          "internalType": "string",
          "name": "name",
          "type": "string"
        },
        {
          "internalType": "string",
          "name": "symbol",
          "type": "string"
        },
        {
          "internalType": "string",
          "name": "baseTokenURI",
          "type": "string"
        }
      ],
      "name": "__ERC721Base_init",
      "outputs": [],
      "stateMutability": "nonpayable",
      "type": "function"
    },
    {
      "inputs": [
        {
          "internalType": "address",
          "name": "to",
          "type": "address"
        },
        {
          "internalType": "uint256",
          "name": "tokenId",
          "type": "uint256"
        }
      ],
      "name": "approve",
      "outputs": [],
      "stateMutability": "nonpayable",
      "type": "function"
    },
    {
      "inputs": [
        {
          "internalType": "address",
          "name": "owner",
          "type": "address"
        }
      ],
      "name": "balanceOf",
      "outputs": [
        {
          "internalType": "uint256",
          "name": "",
          "type": "uint256"
        }
      ],
      "stateMutability": "view",
      "type": "function"
    },
    {
      "inputs": [],
      "name": "contractURI",
      "outputs": [
        {
          "internalType": "string",
          "name": "",
          "type": "string"
        }
      ],
      "stateMutability": "view",
      "type": "function"
    },
    {
      "inputs": [
        {
          "internalType": "uint256",
          "name": "_nftAmountToBuy",
          "type": "uint256"
        }
      ],
      "name": "contribute",
      "outputs": [],
      "stateMutability": "payable",
      "type": "function"
    },
    {
      "inputs": [
        {
          "internalType": "address",
          "name": "",
          "type": "address"
        }
      ],
      "name": "contributions",
      "outputs": [
        {
          "internalType": "uint256",
          "name": "",
          "type": "uint256"
        }
      ],
      "stateMutability": "view",
      "type": "function"
    },
    {
      "inputs": [],
      "name": "creator",
      "outputs": [
        {
          "internalType": "address payable",
          "name": "",
          "type": "address"
        }
      ],
      "stateMutability": "view",
      "type": "function"
    },
    {
      "inputs": [],
      "name": "creatorName",
      "outputs": [
        {
          "internalType": "string",
          "name": "",
          "type": "string"
        }
      ],
      "stateMutability": "view",
      "type": "function"
    },
    {
      "inputs": [],
      "name": "currentBalance",
      "outputs": [
        {
          "internalType": "uint256",
          "name": "",
          "type": "uint256"
        }
      ],
      "stateMutability": "view",
      "type": "function"
    },
    {
      "inputs": [],
      "name": "description",
      "outputs": [
        {
          "internalType": "string",
          "name": "",
          "type": "string"
        }
      ],
      "stateMutability": "view",
      "type": "function"
    },
    {
      "inputs": [
        {
          "internalType": "string",
          "name": "_title",
          "type": "string"
        },
        {
          "internalType": "string",
          "name": "_description",
          "type": "string"
        },
        {
          "internalType": "string",
          "name": "_url",
          "type": "string"
        }
      ],
      "name": "finishWork",
      "outputs": [
        {
          "internalType": "bool",
          "name": "",
          "type": "bool"
        }
      ],
      "stateMutability": "nonpayable",
      "type": "function"
    },
    {
      "inputs": [
        {
          "internalType": "uint256",
          "name": "tokenId",
          "type": "uint256"
        }
      ],
      "name": "getApproved",
      "outputs": [
        {
          "internalType": "address",
          "name": "",
          "type": "address"
        }
      ],
      "stateMutability": "view",
      "type": "function"
    },
    {
      "inputs": [],
      "name": "getNextNFTId",
      "outputs": [
        {
          "internalType": "uint256",
          "name": "",
          "type": "uint256"
        }
      ],
      "stateMutability": "view",
      "type": "function"
    },
    {
      "inputs": [
        {
          "internalType": "bytes32",
          "name": "role",
          "type": "bytes32"
        }
      ],
      "name": "getRoleAdmin",
      "outputs": [
        {
          "internalType": "bytes32",
          "name": "",
          "type": "bytes32"
        }
      ],
      "stateMutability": "view",
      "type": "function"
    },
    {
      "inputs": [
        {
          "internalType": "bytes32",
          "name": "role",
          "type": "bytes32"
        },
        {
          "internalType": "uint256",
          "name": "index",
          "type": "uint256"
        }
      ],
      "name": "getRoleMember",
      "outputs": [
        {
          "internalType": "address",
          "name": "",
          "type": "address"
        }
      ],
      "stateMutability": "view",
      "type": "function"
    },
    {
      "inputs": [
        {
          "internalType": "bytes32",
          "name": "role",
          "type": "bytes32"
        }
      ],
      "name": "getRoleMemberCount",
      "outputs": [
        {
          "internalType": "uint256",
          "name": "",
          "type": "uint256"
        }
      ],
      "stateMutability": "view",
      "type": "function"
    },
    {
      "inputs": [
        {
          "internalType": "bytes32",
          "name": "role",
          "type": "bytes32"
        },
        {
          "internalType": "address",
          "name": "account",
          "type": "address"
        }
      ],
      "name": "grantRole",
      "outputs": [],
      "stateMutability": "nonpayable",
      "type": "function"
    },
    {
      "inputs": [
        {
          "internalType": "bytes32",
          "name": "role",
          "type": "bytes32"
        },
        {
          "internalType": "address",
          "name": "account",
          "type": "address"
        }
      ],
      "name": "hasRole",
      "outputs": [
        {
          "internalType": "bool",
          "name": "",
          "type": "bool"
        }
      ],
      "stateMutability": "view",
      "type": "function"
    },
    {
      "inputs": [
        {
          "internalType": "string",
          "name": "_name",
          "type": "string"
        },
        {
          "internalType": "string",
          "name": "_symbol",
          "type": "string"
        },
        {
          "internalType": "string",
          "name": "_baseTokenURI",
          "type": "string"
        }
      ],
      "name": "initialize",
      "outputs": [],
      "stateMutability": "nonpayable",
      "type": "function"
    },
    {
      "inputs": [
        {
          "internalType": "address",
          "name": "owner",
          "type": "address"
        },
        {
          "internalType": "address",
          "name": "operator",
          "type": "address"
        }
      ],
      "name": "isApprovedForAll",
      "outputs": [
        {
          "internalType": "bool",
          "name": "",
          "type": "bool"
        }
      ],
      "stateMutability": "view",
      "type": "function"
    },
    {
      "inputs": [],
      "name": "isWorkSubmitted",
      "outputs": [
        {
          "internalType": "bool",
          "name": "",
          "type": "bool"
        }
      ],
      "stateMutability": "view",
      "type": "function"
    },
    {
      "inputs": [],
      "name": "name",
      "outputs": [
        {
          "internalType": "string",
          "name": "",
          "type": "string"
        }
      ],
      "stateMutability": "view",
      "type": "function"
    },
    {
      "inputs": [],
      "name": "nftIdCounter",
      "outputs": [
        {
          "internalType": "uint256",
          "name": "_value",
          "type": "uint256"
        }
      ],
      "stateMutability": "view",
      "type": "function"
    },
    {
      "inputs": [],
      "name": "nftLimit",
      "outputs": [
        {
          "internalType": "uint256",
          "name": "",
          "type": "uint256"
        }
      ],
      "stateMutability": "view",
      "type": "function"
    },
    {
      "inputs": [],
      "name": "nftPrice",
      "outputs": [
        {
          "internalType": "uint256",
          "name": "",
          "type": "uint256"
        }
      ],
      "stateMutability": "view",
      "type": "function"
    },
    {
      "inputs": [],
      "name": "nftSoldAmount",
      "outputs": [
        {
          "internalType": "uint256",
          "name": "",
          "type": "uint256"
        }
      ],
      "stateMutability": "view",
      "type": "function"
    },
    {
      "inputs": [],
      "name": "owner",
      "outputs": [
        {
          "internalType": "address",
          "name": "",
          "type": "address"
        }
      ],
      "stateMutability": "view",
      "type": "function"
    },
    {
      "inputs": [
        {
          "internalType": "uint256",
          "name": "tokenId",
          "type": "uint256"
        }
      ],
      "name": "ownerOf",
      "outputs": [
        {
          "internalType": "address",
          "name": "",
          "type": "address"
        }
      ],
      "stateMutability": "view",
      "type": "function"
    },
    {
      "inputs": [],
      "name": "pause",
      "outputs": [],
      "stateMutability": "nonpayable",
      "type": "function"
    },
    {
      "inputs": [],
      "name": "paused",
      "outputs": [
        {
          "internalType": "bool",
          "name": "",
          "type": "bool"
        }
      ],
      "stateMutability": "view",
      "type": "function"
    },
    {
      "inputs": [],
      "name": "renounceOwnership",
      "outputs": [],
      "stateMutability": "nonpayable",
      "type": "function"
    },
    {
      "inputs": [
        {
          "internalType": "bytes32",
          "name": "role",
          "type": "bytes32"
        },
        {
          "internalType": "address",
          "name": "account",
          "type": "address"
        }
      ],
      "name": "renounceRole",
      "outputs": [],
      "stateMutability": "nonpayable",
      "type": "function"
    },
    {
      "inputs": [
        {
          "internalType": "bytes32",
          "name": "role",
          "type": "bytes32"
        },
        {
          "internalType": "address",
          "name": "account",
          "type": "address"
        }
      ],
      "name": "revokeRole",
      "outputs": [],
      "stateMutability": "nonpayable",
      "type": "function"
    },
    {
      "inputs": [
        {
          "internalType": "address",
          "name": "from",
          "type": "address"
        },
        {
          "internalType": "address",
          "name": "to",
          "type": "address"
        },
        {
          "internalType": "uint256",
          "name": "tokenId",
          "type": "uint256"
        }
      ],
      "name": "safeTransferFrom",
      "outputs": [],
      "stateMutability": "nonpayable",
      "type": "function"
    },
    {
      "inputs": [
        {
          "internalType": "address",
          "name": "from",
          "type": "address"
        },
        {
          "internalType": "address",
          "name": "to",
          "type": "address"
        },
        {
          "internalType": "uint256",
          "name": "tokenId",
          "type": "uint256"
        },
        {
          "internalType": "bytes",
          "name": "_data",
          "type": "bytes"
        }
      ],
      "name": "safeTransferFrom",
      "outputs": [],
      "stateMutability": "nonpayable",
      "type": "function"
    },
    {
      "inputs": [
        {
          "internalType": "address",
          "name": "operator",
          "type": "address"
        },
        {
          "internalType": "bool",
          "name": "approved",
          "type": "bool"
        }
      ],
      "name": "setApprovalForAll",
      "outputs": [],
      "stateMutability": "nonpayable",
      "type": "function"
    },
    {
      "inputs": [
        {
          "internalType": "string",
          "name": "newBaseURI",
          "type": "string"
        }
      ],
      "name": "setBaseURI",
      "outputs": [],
      "stateMutability": "nonpayable",
      "type": "function"
    },
    {
      "inputs": [
        {
          "internalType": "string",
          "name": "newContractURI",
          "type": "string"
        }
      ],
      "name": "setContractURI",
      "outputs": [],
      "stateMutability": "nonpayable",
      "type": "function"
    },
    {
      "inputs": [
        {
          "internalType": "bytes4",
          "name": "interfaceId",
          "type": "bytes4"
        }
      ],
      "name": "supportsInterface",
      "outputs": [
        {
          "internalType": "bool",
          "name": "",
          "type": "bool"
        }
      ],
      "stateMutability": "view",
      "type": "function"
    },
    {
      "inputs": [],
      "name": "symbol",
      "outputs": [
        {
          "internalType": "string",
          "name": "",
          "type": "string"
        }
      ],
      "stateMutability": "view",
      "type": "function"
    },
    {
      "inputs": [],
      "name": "timeToSubmitWork",
      "outputs": [
        {
          "internalType": "uint256",
          "name": "",
          "type": "uint256"
        }
      ],
      "stateMutability": "view",
      "type": "function"
    },
    {
      "inputs": [],
      "name": "title",
      "outputs": [
        {
          "internalType": "string",
          "name": "",
          "type": "string"
        }
      ],
      "stateMutability": "view",
      "type": "function"
    },
    {
      "inputs": [
        {
          "internalType": "uint256",
          "name": "index",
          "type": "uint256"
        }
      ],
      "name": "tokenByIndex",
      "outputs": [
        {
          "internalType": "uint256",
          "name": "",
          "type": "uint256"
        }
      ],
      "stateMutability": "view",
      "type": "function"
    },
    {
      "inputs": [
        {
          "internalType": "address",
          "name": "owner",
          "type": "address"
        },
        {
          "internalType": "uint256",
          "name": "index",
          "type": "uint256"
        }
      ],
      "name": "tokenOfOwnerByIndex",
      "outputs": [
        {
          "internalType": "uint256",
          "name": "",
          "type": "uint256"
        }
      ],
      "stateMutability": "view",
      "type": "function"
    },
    {
      "inputs": [
        {
          "internalType": "uint256",
          "name": "tokenId",
          "type": "uint256"
        }
      ],
      "name": "tokenURI",
      "outputs": [
        {
          "internalType": "string",
          "name": "",
          "type": "string"
        }
      ],
      "stateMutability": "view",
      "type": "function"
    },
    {
      "inputs": [],
      "name": "totalSupply",
      "outputs": [
        {
          "internalType": "uint256",
          "name": "",
          "type": "uint256"
        }
      ],
      "stateMutability": "view",
      "type": "function"
    },
    {
      "inputs": [
        {
          "internalType": "address",
          "name": "from",
          "type": "address"
        },
        {
          "internalType": "address",
          "name": "to",
          "type": "address"
        },
        {
          "internalType": "uint256",
          "name": "tokenId",
          "type": "uint256"
        }
      ],
      "name": "transferFrom",
      "outputs": [],
      "stateMutability": "nonpayable",
      "type": "function"
    },
    {
      "inputs": [
        {
          "internalType": "address",
          "name": "newOwner",
          "type": "address"
        }
      ],
      "name": "transferOwnership",
      "outputs": [],
      "stateMutability": "nonpayable",
      "type": "function"
    },
    {
      "inputs": [],
      "name": "unpause",
      "outputs": [],
      "stateMutability": "nonpayable",
      "type": "function"
    },
    {
      "inputs": [],
      "name": "withdraw",
      "outputs": [],
      "stateMutability": "nonpayable",
      "type": "function"
    },
    {
      "inputs": [],
      "name": "workDescription",
      "outputs": [
        {
          "internalType": "string",
          "name": "",
          "type": "string"
        }
      ],
      "stateMutability": "view",
      "type": "function"
    },
    {
      "inputs": [],
      "name": "workTitle",
      "outputs": [
        {
          "internalType": "string",
          "name": "",
          "type": "string"
        }
      ],
      "stateMutability": "view",
      "type": "function"
    },
    {
      "inputs": [],
      "name": "workUrl",
      "outputs": [
        {
          "internalType": "string",
          "name": "",
          "type": "string"
        }
      ],
      "stateMutability": "view",
      "type": "function"
    }
  ],
  "bytecode": "0x6080604052610201805460ff191690553480156200001c57600080fd5b5060405162003c9a38038062003c9a8339810160408190526200003f9162000213565b6101f880546001600160a01b0319166001600160a01b038816179055865162000071906101f99060208a0190620000ba565b50845162000088906101fa906020880190620000ba565b5083516200009f906101fb906020870190620000ba565b506101fc929092556102035561020455506200033192505050565b828054620000c890620002de565b90600052602060002090601f016020900481019282620000ec576000855562000137565b82601f106200010757805160ff191683800117855562000137565b8280016001018555821562000137579182015b82811115620001375782518255916020019190600101906200011a565b506200014592915062000149565b5090565b5b808211156200014557600081556001016200014a565b600082601f83011262000171578081fd5b81516001600160401b03808211156200018e576200018e6200031b565b604051601f8301601f19908116603f01168101908282118183101715620001b957620001b96200031b565b81604052838152602092508683858801011115620001d5578485fd5b8491505b83821015620001f85785820183015181830184015290820190620001d9565b838211156200020957848385830101525b9695505050505050565b600080600080600080600060e0888a0312156200022e578283fd5b87516001600160401b038082111562000245578485fd5b620002538b838c0162000160565b60208b015190995091506001600160a01b038216821462000272578485fd5b60408a01519197508082111562000287578485fd5b620002958b838c0162000160565b965060608a0151915080821115620002ab578485fd5b50620002ba8a828b0162000160565b9450506080880151925060a0880151915060c0880151905092959891949750929550565b600181811c90821680620002f357607f821691505b602082108114156200031557634e487b7160e01b600052602260045260246000fd5b50919050565b634e487b7160e01b600052604160045260246000fd5b61395980620003416000396000f3fe60806040526004361061036b5760003560e01c80638154e1f0116101c6578063a6487c53116100f7578063d539139311610095578063e63ab1e91161006f578063e63ab1e914610979578063e8a3d4851461099b578063e985e9c5146109b0578063f2fde38b146109f957600080fd5b8063d539139314610910578063d547741f14610944578063d759f9cf1461096457600080fd5b8063c1cbbca7116100d1578063c1cbbca7146108a6578063c87b56dd146108b9578063ca15c873146108d9578063ce845d1d146108f957600080fd5b8063a6487c531461084e578063b88d4fde1461086e578063bbf4925a1461088e57600080fd5b806391d14854116101645780639e3184471161013e5780639e318447146107e9578063a217fddf146107fe578063a22cb46514610813578063a3d7e0291461083357600080fd5b806391d1485414610794578063938e3d7b146107b457806395d89b41146107d457600080fd5b80638988e693116101a05780638988e693146107205780638a99b472146107355780638da5cb5b146107555780639010d07c1461077457600080fd5b80638154e1f0146106dd57806383f7cd0d146106f45780638456cb591461070b57600080fd5b80633ac05632116102a057806355f804b31161023e5780636e4b73c1116102185780636e4b73c11461067e57806370a0823114610693578063715018a6146106b35780637284e416146106c857600080fd5b806355f804b3146106265780635c975abb146106465780636352211e1461065e57600080fd5b806342842e0e1161027a57806342842e0e146105a357806342e94c90146105c35780634a79d50c146105f15780634f6ccce71461060657600080fd5b80633ac05632146105595780633ccfd60b146105795780633f4ba83a1461058e57600080fd5b80631f6f90bd1161030d5780632a7065ea116102e75780632a7065ea146104e25780632f2ff15d146104f95780632f745c591461051957806336568abe1461053957600080fd5b80631f6f90bd1461047c57806323b872dd14610491578063248a9ca3146104b157600080fd5b8063081812fc11610349578063081812fc14610400578063095ea7b3146104205780630d39fc811461044257806318160ddd1461046757600080fd5b806301ffc9a71461037057806302d05d3f146103a557806306fdde03146103de575b600080fd5b34801561037c57600080fd5b5061039061038b36600461349c565b610a19565b60405190151581526020015b60405180910390f35b3480156103b157600080fd5b506101f8546103c6906001600160a01b031681565b6040516001600160a01b03909116815260200161039c565b3480156103ea57600080fd5b506103f3610a2a565b60405161039c9190613698565b34801561040c57600080fd5b506103c661041b366004613441565b610abc565b34801561042c57600080fd5b5061044061043b366004613418565b610b56565b005b34801561044e57600080fd5b506104596102035481565b60405190815260200161039c565b34801561047357600080fd5b5060fd54610459565b34801561048857600080fd5b506103f3610c6c565b34801561049d57600080fd5b506104406104ac36600461332a565b610cfb565b3480156104bd57600080fd5b506104596104cc366004613441565b600090815261012d602052604090206001015490565b3480156104ee57600080fd5b506104596102045481565b34801561050557600080fd5b50610440610514366004613459565b610d2c565b34801561052557600080fd5b50610459610534366004613418565b610d4f565b34801561054557600080fd5b50610440610554366004613459565b610de5565b34801561056557600080fd5b50610440610574366004613507565b610e08565b34801561058557600080fd5b50610440610f03565b34801561059a57600080fd5b50610440610fe0565b3480156105af57600080fd5b506104406105be36600461332a565b611048565b3480156105cf57600080fd5b506104596105de3660046132de565b6102056020526000908152604090205481565b3480156105fd57600080fd5b506103f3611063565b34801561061257600080fd5b50610459610621366004613441565b611071565b34801561063257600080fd5b506104406106413660046134d4565b611112565b34801561065257600080fd5b5060975460ff16610390565b34801561066a57600080fd5b506103c6610679366004613441565b61117a565b34801561068a57600080fd5b506104596111f1565b34801561069f57600080fd5b506104596106ae3660046132de565b611202565b3480156106bf57600080fd5b50610440611289565b3480156106d457600080fd5b506103f36112ee565b3480156106e957600080fd5b506104596101fc5481565b34801561070057600080fd5b506104596102025481565b34801561071757600080fd5b506104406112fc565b34801561072c57600080fd5b506103f3611362565b34801561074157600080fd5b50610390610750366004613507565b611370565b34801561076157600080fd5b50610191546001600160a01b03166103c6565b34801561078057600080fd5b506103c661078f36600461347b565b611414565b3480156107a057600080fd5b506103906107af366004613459565b611434565b3480156107c057600080fd5b506104406107cf3660046134d4565b611460565b3480156107e057600080fd5b506103f36114c4565b3480156107f557600080fd5b506103f36114d3565b34801561080a57600080fd5b50610459600081565b34801561081f57600080fd5b5061044061082e3660046133de565b6114e1565b34801561083f57600080fd5b50610201546103909060ff1681565b34801561085a57600080fd5b50610440610869366004613507565b6115a6565b34801561087a57600080fd5b50610440610889366004613365565b611610565b34801561089a57600080fd5b506101f7546104599081565b6104406108b4366004613441565b611642565b3480156108c557600080fd5b506103f36108d4366004613441565b6117f0565b3480156108e557600080fd5b506104596108f4366004613441565b6118ca565b34801561090557600080fd5b506104596102005481565b34801561091c57600080fd5b506104597f9f2df0fed2c77648de5860a4cc508cd0818c85b8b8a1ab4ceeef8d981c8956a681565b34801561095057600080fd5b5061044061095f366004613459565b6118e2565b34801561097057600080fd5b506103f36118ec565b34801561098557600080fd5b5061045960008051602061390483398151915281565b3480156109a757600080fd5b506103f36118fa565b3480156109bc57600080fd5b506103906109cb3660046132f8565b6001600160a01b039182166000908152606a6020908152604080832093909416825291909152205460ff1690565b348015610a0557600080fd5b50610440610a143660046132de565b61190a565b6000610a24826119d6565b92915050565b606060658054610a3990613841565b80601f0160208091040260200160405190810160405280929190818152602001828054610a6590613841565b8015610ab25780601f10610a8757610100808354040283529160200191610ab2565b820191906000526020600020905b815481529060010190602001808311610a9557829003601f168201915b5050505050905090565b6000818152606760205260408120546001600160a01b0316610b3a5760405162461bcd60e51b815260206004820152602c60248201527f4552433732313a20617070726f76656420717565727920666f72206e6f6e657860448201526b34b9ba32b73a103a37b5b2b760a11b60648201526084015b60405180910390fd5b506000908152606960205260409020546001600160a01b031690565b6000610b618261117a565b9050806001600160a01b0316836001600160a01b03161415610bcf5760405162461bcd60e51b815260206004820152602160248201527f4552433732313a20617070726f76616c20746f2063757272656e74206f776e656044820152603960f91b6064820152608401610b31565b336001600160a01b0382161480610beb5750610beb81336109cb565b610c5d5760405162461bcd60e51b815260206004820152603860248201527f4552433732313a20617070726f76652063616c6c6572206973206e6f74206f7760448201527f6e6572206e6f7220617070726f76656420666f7220616c6c00000000000000006064820152608401610b31565b610c6783836119fb565b505050565b6101f98054610c7a90613841565b80601f0160208091040260200160405190810160405280929190818152602001828054610ca690613841565b8015610cf35780601f10610cc857610100808354040283529160200191610cf3565b820191906000526020600020905b815481529060010190602001808311610cd657829003601f168201915b505050505081565b610d053382611a69565b610d215760405162461bcd60e51b8152600401610b319061374b565b610c67838383611b60565b610d368282611d0b565b600082815261015f60205260409020610c679082611d32565b6000610d5a83611202565b8210610dbc5760405162461bcd60e51b815260206004820152602b60248201527f455243373231456e756d657261626c653a206f776e657220696e646578206f7560448201526a74206f6620626f756e647360a81b6064820152608401610b31565b506001600160a01b0391909116600090815260fb60209081526040808320938352929052205490565b610def8282611d47565b600082815261015f60205260409020610c679082611dc1565b600054610100900460ff1680610e21575060005460ff16155b610e3d5760405162461bcd60e51b8152600401610b31906136fd565b600054610100900460ff16158015610e5f576000805461ffff19166101011790555b8151610e73906101c3906020850190613194565b50610e7e8484611dd6565b610e86611e5d565b610e8e611ee8565b610e96611f4f565b610e9e611fae565b610ea9600033612015565b610ed37f9f2df0fed2c77648de5860a4cc508cd0818c85b8b8a1ab4ceeef8d981c8956a633612015565b610eeb60008051602061390483398151915233612015565b8015610efd576000805461ff00191690555b50505050565b6101f8546001600160a01b03163314610f725760405162461bcd60e51b815260206004820152602b60248201527f596f75206d757374206265207468652070726f6a6563742063726561746f722060448201526a746f20776974686472617760a81b6064820152608401610b31565b6040514790339082156108fc029083906000818181858888f19350505050158015610fa1573d6000803e3d6000fd5b5060006102005560405181815233907f7084f5476618d8e60b11ef0d7d3f06914655adb8793e28ff7f018d4c76d505d59060200160405180910390a250565b610ff860008051602061390483398151915233611434565b61103e5760405162461bcd60e51b815260206004820152601760248201527622a9219b9918a130b9b29d1037b7363c96b830bab9b2b960491b6044820152606401610b31565b61104661201f565b565b610c6783838360405180602001604052806000815250611610565b6101fa8054610c7a90613841565b600061107c60fd5490565b82106110df5760405162461bcd60e51b815260206004820152602c60248201527f455243373231456e756d657261626c653a20676c6f62616c20696e646578206f60448201526b7574206f6620626f756e647360a01b6064820152608401610b31565b60fd828154811061110057634e487b7160e01b600052603260045260246000fd5b90600052602060002001549050919050565b61111d600033611434565b6111625760405162461bcd60e51b815260206004820152601660248201527522a9219b9918a130b9b29d1037b7363c96b0b236b4b760511b6044820152606401610b31565b8051611176906101c3906020840190613194565b5050565b6000818152606760205260408120546001600160a01b031680610a245760405162461bcd60e51b815260206004820152602960248201527f4552433732313a206f776e657220717565727920666f72206e6f6e657869737460448201526832b73a103a37b5b2b760b91b6064820152608401610b31565b60006111fd6101f75490565b905090565b60006001600160a01b03821661126d5760405162461bcd60e51b815260206004820152602a60248201527f4552433732313a2062616c616e636520717565727920666f7220746865207a65604482015269726f206164647265737360b01b6064820152608401610b31565b506001600160a01b031660009081526068602052604090205490565b610191546001600160a01b031633146112e45760405162461bcd60e51b815260206004820181905260248201527f4f776e61626c653a2063616c6c6572206973206e6f7420746865206f776e65726044820152606401610b31565b61104660006120b2565b6101fb8054610c7a90613841565b61131460008051602061390483398151915233611434565b61135a5760405162461bcd60e51b815260206004820152601760248201527622a9219b9918a130b9b29d1037b7363c96b830bab9b2b960491b6044820152606401610b31565b611046612105565b6101ff8054610c7a90613841565b6101f8546000906001600160a01b031633146113bd5760405162461bcd60e51b815260206004820152600c60248201526b27b7363c9031b932b0ba37b960a11b6044820152606401610b31565b610201805460ff1916600117905583516113df906101fd906020870190613194565b5082516113f4906101fe906020860190613194565b508151611409906101ff906020850190613194565b506001949350505050565b600082815261015f6020526040812061142d9083612180565b9392505050565b600091825261012d602090815260408084206001600160a01b0393909316845291905290205460ff1690565b61146b600033611434565b6114b05760405162461bcd60e51b815260206004820152601660248201527522a9219b9918a130b9b29d1037b7363c96b0b236b4b760511b6044820152606401610b31565b8051611176906101c4906020840190613194565b606060668054610a3990613841565b6101fe8054610c7a90613841565b6001600160a01b03821633141561153a5760405162461bcd60e51b815260206004820152601960248201527f4552433732313a20617070726f766520746f2063616c6c6572000000000000006044820152606401610b31565b336000818152606a602090815260408083206001600160a01b03871680855290835292819020805460ff191686151590811790915590519081529192917f17307eab39ab6107e8899845ad3d59bd9653f200f220920489ca2b5937696c31910160405180910390a35050565b600054610100900460ff16806115bf575060005460ff16155b6115db5760405162461bcd60e51b8152600401610b31906136fd565b600054610100900460ff161580156115fd576000805461ffff19166101011790555b61160884848461218c565b610eeb6121ee565b61161a3383611a69565b6116365760405162461bcd60e51b8152600401610b319061374b565b610efd8484848461224d565b6101f8546001600160a01b03163314156116af5760405162461bcd60e51b815260206004820152602860248201527f596f752063616e277420636f6e7472696275746520746f20796f7572206f776e604482015267081c1c9bda9958dd60c21b6064820152608401610b31565b61020454610202546116c19083612280565b11156116fa5760405162461bcd60e51b815260206004820152600860248201526714dbdb19081bdd5d60c21b6044820152606401610b31565b6000610203548261170b91906137c8565b90503481146117555760405162461bcd60e51b8152602060048201526016602482015275151bdad95b88185b5bdd5b9d081a5b98dbdc9c9958dd60521b6044820152606401610b31565b610200546117639034612280565b61020055610202546117759083612280565b6102025533600090815261020560205260409020546117949034612280565b33600081815261020560205260409020919091556117b290836122ac565b6040805183815234602082015233917ffa35a310d7113dddce1c275da946348e9aaebf9050b00b372033c4d84b0bd6eb910160405180910390a25050565b6000818152606760205260409020546060906001600160a01b031661186f5760405162461bcd60e51b815260206004820152602f60248201527f4552433732314d657461646174613a2055524920717565727920666f72206e6f60448201526e3732bc34b9ba32b73a103a37b5b2b760891b6064820152608401610b31565b60006118796122eb565b90506000815111611899576040518060200160405280600081525061142d565b806118a3846122fb565b6040516020016118b49291906135b7565b6040516020818303038152906040529392505050565b600081815261015f60205260408120610a2490612415565b610def828261241f565b6101fd8054610c7a90613841565b60606101c48054610a3990613841565b610191546001600160a01b031633146119655760405162461bcd60e51b815260206004820181905260248201527f4f776e61626c653a2063616c6c6572206973206e6f7420746865206f776e65726044820152606401610b31565b6001600160a01b0381166119ca5760405162461bcd60e51b815260206004820152602660248201527f4f776e61626c653a206e6577206f776e657220697320746865207a65726f206160448201526564647265737360d01b6064820152608401610b31565b6119d3816120b2565b50565b60006001600160e01b03198216635a05180f60e01b1480610a245750610a2482612446565b600081815260696020526040902080546001600160a01b0319166001600160a01b0384169081179091558190611a308261117a565b6001600160a01b03167f8c5be1e5ebec7d5bd14f71427d1e84f3dd0314c0f7b2291e5b200ac8c7c3b92560405160405180910390a45050565b6000818152606760205260408120546001600160a01b0316611ae25760405162461bcd60e51b815260206004820152602c60248201527f4552433732313a206f70657261746f7220717565727920666f72206e6f6e657860448201526b34b9ba32b73a103a37b5b2b760a11b6064820152608401610b31565b6000611aed8361117a565b9050806001600160a01b0316846001600160a01b03161480611b285750836001600160a01b0316611b1d84610abc565b6001600160a01b0316145b80611b5857506001600160a01b038082166000908152606a602090815260408083209388168352929052205460ff165b949350505050565b826001600160a01b0316611b738261117a565b6001600160a01b031614611bdb5760405162461bcd60e51b815260206004820152602960248201527f4552433732313a207472616e73666572206f6620746f6b656e2074686174206960448201526839903737ba1037bbb760b91b6064820152608401610b31565b6001600160a01b038216611c3d5760405162461bcd60e51b8152602060048201526024808201527f4552433732313a207472616e7366657220746f20746865207a65726f206164646044820152637265737360e01b6064820152608401610b31565b611c4883838361246b565b611c536000826119fb565b6001600160a01b0383166000908152606860205260408120805460019290611c7c9084906137e7565b90915550506001600160a01b0382166000908152606860205260408120805460019290611caa90849061379c565b909155505060008181526067602052604080822080546001600160a01b0319166001600160a01b0386811691821790925591518493918716917fddf252ad1be2c89b69c2b068fc378daa952ba7f163c4a11628f55a4df523b3ef91a4505050565b600082815261012d6020526040902060010154611d288133612476565b610c6783836124da565b600061142d836001600160a01b038416612561565b6001600160a01b0381163314611db75760405162461bcd60e51b815260206004820152602f60248201527f416363657373436f6e74726f6c3a2063616e206f6e6c792072656e6f756e636560448201526e103937b632b9903337b91039b2b63360891b6064820152608401610b31565b61117682826125b0565b600061142d836001600160a01b038416612618565b600054610100900460ff1680611def575060005460ff16155b611e0b5760405162461bcd60e51b8152600401610b31906136fd565b600054610100900460ff16158015611e2d576000805461ffff19166101011790555b611e35612735565b611e3d612735565b611e47838361279f565b8015610c67576000805461ff0019169055505050565b600054610100900460ff1680611e76575060005460ff16155b611e925760405162461bcd60e51b8152600401610b31906136fd565b600054610100900460ff16158015611eb4576000805461ffff19166101011790555b611ebc612735565b611ec4612735565b611ecc612834565b611ed4612735565b80156119d3576000805461ff001916905550565b600054610100900460ff1680611f01575060005460ff16155b611f1d5760405162461bcd60e51b8152600401610b31906136fd565b600054610100900460ff16158015611f3f576000805461ffff19166101011790555b611f47612735565b611ecc612735565b600054610100900460ff1680611f68575060005460ff16155b611f845760405162461bcd60e51b8152600401610b31906136fd565b600054610100900460ff16158015611fa6576000805461ffff19166101011790555b611f3f612735565b600054610100900460ff1680611fc7575060005460ff16155b611fe35760405162461bcd60e51b8152600401610b31906136fd565b600054610100900460ff16158015612005576000805461ffff19166101011790555b61200d612735565b611ed46128a9565b610d368282612909565b60975460ff166120685760405162461bcd60e51b815260206004820152601460248201527314185d5cd8589b194e881b9bdd081c185d5cd95960621b6044820152606401610b31565b6097805460ff191690557f5db9ee0a495bf2e6ff9c91a7834c1ba4fdd244a5e8aa4e537bd38aeae4b073aa335b6040516001600160a01b03909116815260200160405180910390a1565b61019180546001600160a01b038381166001600160a01b0319831681179093556040519116919082907f8be0079c531659141344cd1fd0a4f28419497f9722a3daafe3b4186f6b6457e090600090a35050565b60975460ff161561214b5760405162461bcd60e51b815260206004820152601060248201526f14185d5cd8589b194e881c185d5cd95960821b6044820152606401610b31565b6097805460ff191660011790557f62e78cea01bee320cd4e420270b5ea74000d11b0c9f74754ebdbfc544b05a2586120953390565b600061142d8383612913565b600054610100900460ff16806121a5575060005460ff16155b6121c15760405162461bcd60e51b8152600401610b31906136fd565b600054610100900460ff161580156121e3576000805461ffff19166101011790555b610eeb848484610e08565b600054610100900460ff1680612207575060005460ff16155b6122235760405162461bcd60e51b8152600401610b31906136fd565b600054610100900460ff16158015612245576000805461ffff19166101011790555b611ed461294b565b612258848484611b60565b612264848484846129bc565b610efd5760405162461bcd60e51b8152600401610b31906136ab565b600061228c828461379c565b905082811015610a2457634e487b7160e01b600052600160045260246000fd5b60005b81811015610c67576122ca836122c56101f75490565b612abe565b6122d96101f780546001019055565b806122e38161387c565b9150506122af565b60606101c38054610a3990613841565b60608161231f5750506040805180820190915260018152600360fc1b602082015290565b8160005b811561234957806123338161387c565b91506123429050600a836137b4565b9150612323565b60008167ffffffffffffffff81111561237257634e487b7160e01b600052604160045260246000fd5b6040519080825280601f01601f19166020018201604052801561239c576020820181803683370190505b5090505b8415611b58576123b16001836137e7565b91506123be600a86613897565b6123c990603061379c565b60f81b8183815181106123ec57634e487b7160e01b600052603260045260246000fd5b60200101906001600160f81b031916908160001a90535061240e600a866137b4565b94506123a0565b6000610a24825490565b600082815261012d602052604090206001015461243c8133612476565b610c6783836125b0565b60006001600160e01b03198216637965db0b60e01b1480610a245750610a2482612ad8565b610c67838383612afd565b6124808282611434565b61117657612498816001600160a01b03166014612bc0565b6124a3836020612bc0565b6040516020016124b49291906135e6565b60408051601f198184030181529082905262461bcd60e51b8252610b3191600401613698565b6124e48282611434565b61117657600082815261012d602090815260408083206001600160a01b03851684529091529020805460ff1916600117905561251d3390565b6001600160a01b0316816001600160a01b0316837f2f8788117e7eff1d82e926ec794901d17c78024a50270940304540a733656f0d60405160405180910390a45050565b60008181526001830160205260408120546125a857508154600181810184556000848152602080822090930184905584548482528286019093526040902091909155610a24565b506000610a24565b6125ba8282611434565b1561117657600082815261012d602090815260408083206001600160a01b0385168085529252808320805460ff1916905551339285917ff6391f5c32d9c69d2a47ea670b442974b53935d1edc7fd64eb21e047a839171b9190a45050565b6000818152600183016020526040812054801561272b57600061263c6001836137e7565b8554909150600090612650906001906137e7565b90508181146126d157600086600001828154811061267e57634e487b7160e01b600052603260045260246000fd5b90600052602060002001549050808760000184815481106126af57634e487b7160e01b600052603260045260246000fd5b6000918252602080832090910192909255918252600188019052604090208390555b85548690806126f057634e487b7160e01b600052603160045260246000fd5b600190038181906000526020600020016000905590558560010160008681526020019081526020016000206000905560019350505050610a24565b6000915050610a24565b600054610100900460ff168061274e575060005460ff16155b61276a5760405162461bcd60e51b8152600401610b31906136fd565b600054610100900460ff16158015611ed4576000805461ffff191661010117905580156119d3576000805461ff001916905550565b600054610100900460ff16806127b8575060005460ff16155b6127d45760405162461bcd60e51b8152600401610b31906136fd565b600054610100900460ff161580156127f6576000805461ffff19166101011790555b8251612809906065906020860190613194565b50815161281d906066906020850190613194565b508015610c67576000805461ff0019169055505050565b600054610100900460ff168061284d575060005460ff16155b6128695760405162461bcd60e51b8152600401610b31906136fd565b600054610100900460ff1615801561288b576000805461ffff19166101011790555b6097805460ff1916905580156119d3576000805461ff001916905550565b600054610100900460ff16806128c2575060005460ff16155b6128de5760405162461bcd60e51b8152600401610b31906136fd565b600054610100900460ff16158015612900576000805461ffff19166101011790555b611ed4336120b2565b61117682826124da565b600082600001828154811061293857634e487b7160e01b600052603260045260246000fd5b9060005260206000200154905092915050565b600054610100900460ff1680612964575060005460ff16155b6129805760405162461bcd60e51b8152600401610b31906136fd565b600054610100900460ff161580156129a2576000805461ffff19166101011790555b60016101c55580156119d3576000805461ff001916905550565b60006001600160a01b0384163b1561140957604051630a85bd0160e11b81526001600160a01b0385169063150b7a0290612a0090339089908890889060040161365b565b602060405180830381600087803b158015612a1a57600080fd5b505af1925050508015612a4a575060408051601f3d908101601f19168201909252612a47918101906134b8565b60015b612aa4573d808015612a78576040519150601f19603f3d011682016040523d82523d6000602084013e612a7d565b606091505b508051612a9c5760405162461bcd60e51b8152600401610b31906136ab565b805181602001fd5b6001600160e01b031916630a85bd0160e11b149050611b58565b611176828260405180602001604052806000815250612da2565b60006001600160e01b0319821663780e9d6360e01b1480610a245750610a2482612dd5565b612b08838383612e25565b6001600160a01b038316612b6357612b5e8160fd8054600083815260fe60205260408120829055600182018355919091527f9346ac6dd7de6b96975fec380d4d994c4c12e6a8897544f22915316cc6cca2800155565b612b86565b816001600160a01b0316836001600160a01b031614612b8657612b868382612e8c565b6001600160a01b038216612b9d57610c6781612f29565b826001600160a01b0316826001600160a01b031614610c6757610c678282613002565b60606000612bcf8360026137c8565b612bda90600261379c565b67ffffffffffffffff811115612c0057634e487b7160e01b600052604160045260246000fd5b6040519080825280601f01601f191660200182016040528015612c2a576020820181803683370190505b509050600360fc1b81600081518110612c5357634e487b7160e01b600052603260045260246000fd5b60200101906001600160f81b031916908160001a905350600f60fb1b81600181518110612c9057634e487b7160e01b600052603260045260246000fd5b60200101906001600160f81b031916908160001a9053506000612cb48460026137c8565b612cbf90600161379c565b90505b6001811115612d53576f181899199a1a9b1b9c1cb0b131b232b360811b85600f1660108110612d0157634e487b7160e01b600052603260045260246000fd5b1a60f81b828281518110612d2557634e487b7160e01b600052603260045260246000fd5b60200101906001600160f81b031916908160001a90535060049490941c93612d4c8161382a565b9050612cc2565b50831561142d5760405162461bcd60e51b815260206004820181905260248201527f537472696e67733a20686578206c656e67746820696e73756666696369656e746044820152606401610b31565b612dac8383613046565b612db960008484846129bc565b610c675760405162461bcd60e51b8152600401610b31906136ab565b60006001600160e01b031982166380ac58cd60e01b1480612e0657506001600160e01b03198216635b5e139f60e01b145b80610a2457506301ffc9a760e01b6001600160e01b0319831614610a24565b60975460ff1615610c675760405162461bcd60e51b815260206004820152602b60248201527f4552433732315061757361626c653a20746f6b656e207472616e73666572207760448201526a1a1a5b19481c185d5cd95960aa1b6064820152608401610b31565b60006001612e9984611202565b612ea391906137e7565b600083815260fc6020526040902054909150808214612ef6576001600160a01b038416600090815260fb60209081526040808320858452825280832054848452818420819055835260fc90915290208190555b50600091825260fc602090815260408084208490556001600160a01b03909416835260fb81528383209183525290812055565b60fd54600090612f3b906001906137e7565b600083815260fe602052604081205460fd8054939450909284908110612f7157634e487b7160e01b600052603260045260246000fd5b906000526020600020015490508060fd8381548110612fa057634e487b7160e01b600052603260045260246000fd5b600091825260208083209091019290925582815260fe909152604080822084905585825281205560fd805480612fe657634e487b7160e01b600052603160045260246000fd5b6001900381819060005260206000200160009055905550505050565b600061300d83611202565b6001600160a01b03909316600090815260fb60209081526040808320868452825280832085905593825260fc9052919091209190915550565b6001600160a01b03821661309c5760405162461bcd60e51b815260206004820181905260248201527f4552433732313a206d696e7420746f20746865207a65726f20616464726573736044820152606401610b31565b6000818152606760205260409020546001600160a01b0316156131015760405162461bcd60e51b815260206004820152601c60248201527f4552433732313a20746f6b656e20616c7265616479206d696e746564000000006044820152606401610b31565b61310d6000838361246b565b6001600160a01b038216600090815260686020526040812080546001929061313690849061379c565b909155505060008181526067602052604080822080546001600160a01b0319166001600160a01b03861690811790915590518392907fddf252ad1be2c89b69c2b068fc378daa952ba7f163c4a11628f55a4df523b3ef908290a45050565b8280546131a090613841565b90600052602060002090601f0160209004810192826131c25760008555613208565b82601f106131db57805160ff1916838001178555613208565b82800160010185558215613208579182015b828111156132085782518255916020019190600101906131ed565b50613214929150613218565b5090565b5b808211156132145760008155600101613219565b600067ffffffffffffffff80841115613248576132486138d7565b604051601f8501601f19908116603f01168101908282118183101715613270576132706138d7565b8160405280935085815286868601111561328957600080fd5b858560208301376000602087830101525050509392505050565b80356001600160a01b03811681146132ba57600080fd5b919050565b600082601f8301126132cf578081fd5b61142d8383356020850161322d565b6000602082840312156132ef578081fd5b61142d826132a3565b6000806040838503121561330a578081fd5b613313836132a3565b9150613321602084016132a3565b90509250929050565b60008060006060848603121561333e578081fd5b613347846132a3565b9250613355602085016132a3565b9150604084013590509250925092565b6000806000806080858703121561337a578081fd5b613383856132a3565b9350613391602086016132a3565b925060408501359150606085013567ffffffffffffffff8111156133b3578182fd5b8501601f810187136133c3578182fd5b6133d28782356020840161322d565b91505092959194509250565b600080604083850312156133f0578182fd5b6133f9836132a3565b91506020830135801515811461340d578182fd5b809150509250929050565b6000806040838503121561342a578182fd5b613433836132a3565b946020939093013593505050565b600060208284031215613452578081fd5b5035919050565b6000806040838503121561346b578182fd5b82359150613321602084016132a3565b6000806040838503121561348d578182fd5b50508035926020909101359150565b6000602082840312156134ad578081fd5b813561142d816138ed565b6000602082840312156134c9578081fd5b815161142d816138ed565b6000602082840312156134e5578081fd5b813567ffffffffffffffff8111156134fb578182fd5b611b58848285016132bf565b60008060006060848603121561351b578283fd5b833567ffffffffffffffff80821115613532578485fd5b61353e878388016132bf565b94506020860135915080821115613553578384fd5b61355f878388016132bf565b93506040860135915080821115613574578283fd5b50613581868287016132bf565b9150509250925092565b600081518084526135a38160208601602086016137fe565b601f01601f19169290920160200192915050565b600083516135c98184602088016137fe565b8351908301906135dd8183602088016137fe565b01949350505050565b7f416363657373436f6e74726f6c3a206163636f756e742000000000000000000081526000835161361e8160178501602088016137fe565b7001034b99036b4b9b9b4b733903937b6329607d1b601791840191820152835161364f8160288401602088016137fe565b01602801949350505050565b6001600160a01b038581168252841660208201526040810183905260806060820181905260009061368e9083018461358b565b9695505050505050565b60208152600061142d602083018461358b565b60208082526032908201527f4552433732313a207472616e7366657220746f206e6f6e20455243373231526560408201527131b2b4bb32b91034b6b83632b6b2b73a32b960711b606082015260800190565b6020808252602e908201527f496e697469616c697a61626c653a20636f6e747261637420697320616c72656160408201526d191e481a5b9a5d1a585b1a5e995960921b606082015260800190565b60208082526031908201527f4552433732313a207472616e736665722063616c6c6572206973206e6f74206f6040820152701ddb995c881b9bdc88185c1c1c9bdd9959607a1b606082015260800190565b600082198211156137af576137af6138ab565b500190565b6000826137c3576137c36138c1565b500490565b60008160001904831182151516156137e2576137e26138ab565b500290565b6000828210156137f9576137f96138ab565b500390565b60005b83811015613819578181015183820152602001613801565b83811115610efd5750506000910152565b600081613839576138396138ab565b506000190190565b600181811c9082168061385557607f821691505b6020821081141561387657634e487b7160e01b600052602260045260246000fd5b50919050565b6000600019821415613890576138906138ab565b5060010190565b6000826138a6576138a66138c1565b500690565b634e487b7160e01b600052601160045260246000fd5b634e487b7160e01b600052601260045260246000fd5b634e487b7160e01b600052604160045260246000fd5b6001600160e01b0319811681146119d357600080fdfe65d7a28e3265b37a6474929f336521b332c1681b933f6cb9f3376673440d862aa26469706673582212200f09a829c99b29e3f9af8df01e3a4da89bae90659ab44e0208fbc35589406d6764736f6c63430008040033",
  "linkReferences": {},
  "deployedLinkReferences": {}
}